:100000000C9484250D9490650D9465650D943A6566
:100010000D940F650D94E4640D94B9640D948E6491
:100020000D9463640C94CBE00C94CBE00C94CBE087
:100030000C94C4250C94C4250C94C4250C94C4259C
:100040000C94C4250C9492AB0C94C4250C94C42538
:100050000C94C4250C9400AB0C94C4250D94196425
:100060000C94C4250C9432840C9428840C94C425DC
:100070000C94C4250C94C4250C94C4250C94C4255C
:100080000C94084A0C94C4250C94C4250C94C425E3
:100090000C94C4250C94C4250C94C4250C94C4253C
:1000A0000C94C4250C94C4250C94DA490C94C425F2
:1000B0000C94C4250C94C4250C94C4250C94C4251C
:1000C0000C94C4250C94C4250C94C4250C94C4250C
:1000D0000C94C4250C94C4250C94C4250C94C425FC
:1000E0000C94C425084AD73B3BCE016E84BCBFFDAF
:1000F000C12F3D6C74319ABD56833DDA3D00C77FF8
:1001000011BED9E4BB4C3E916BAAAABE0000008090
:100110003F07634236B79BD8A71A39685618AEBA5C
:10012000AB558C1D3CB7CC5763BD6DEDFD753EF6F0
:10013000177231BF000000803F05A84CCDB2D44EED
:10014000B93836A9020C50B9918688083CA6AAAAEB
:100150002ABE000000803F08000000BE9224491221
:100160003EABAAAA2ABECDCCCC4C3E00000080BE3D
:10017000ABAAAAAA3E00000000BF000000803F001A
:1001800000000000084178D3BB4387D1133D190E0E
:100190003CC3BD4282AD2B3E68EC8276BED98FE176
:1001A000A93E4C80EFFFBE01C4FF7F3F000000006E
:1001B00000000D9478370D9443140D94B0290D94DC
:1001C0005D320D94FD010D9409080D94FE630D94AC
:1001D00043020D94540D0D946F220D94DF5D0D9428
:1001E00014090D943F1C0D940E440D943D020D9482
:1001F000B2290D94480D0D9408090D94E92C0D9425
:100200004B140D9464020D94D52C0D94BB060D94E3
:1002100011090D94B11B0D94EF0D0D94DC2D0D946F
:10022000840E0D9411080D94362C0D9469220D94B2
:1002300084220D94FD5D0D943D770D94F1010D9494
:10024000055E0D94FA010D94BE5D0D94EC080D94BD
:10025000BA4D0D94E55D0D9472220D94031C0D941E
:100260000B5E0D94F35D0D94E95D0D9441020D94C8
:10027000D3130D94342C0D94E94D0D94B5530D9476
:10028000033E0D945C2F0D9461020D94D45D0D948A
:10029000293C0D943B020D94F32C0D94382C0D94B5
:1002A00081220D94FD070D94C2000D94EF5D0D9415
:1002B000DF2C0D94270A0D94B2000D947E220D942C
:1002C000E5070D945A0D0D945D310D94E42C0D94B9
:1002D00045090D94680F0D944E0D0D9407110D9462
:1002E000B0060D9437020D947B220D9445020D94B7
:1002F0003E0D0D9405090D9423390D9410090D94AC
:1003000007140D94914E0D94D85D0D94F82C0D9416
:1003100078220D94F6080D9416350D940F5E0D9409
:10032000EE2C0D945B770D9417090D94EB050D944D
:1003300085070D94FC080D94CD070D94BB4D0D94CD
:10034000FF080D94DA2C0D94B5010D945D140D94F5
:100350003B120D9428100D9467020D94B95D0D9415
:10036000DC5D0D94B5070D94D05D0D94430D0D9497
:10037000211C0D940B090D94FD2C0D94B3330D9499
:1003800060050D9404080D94F75D0D94E84D0D94EF
:1003900089050D9402090D949D070D9416080D947E
:1003A0003F020D94BB000D9466220D94F9080D9444
:1003B000A2020D94015E0D946C220D9475220D9491
:1003C00089014E414E494E495459494E46CDCCCCF7
:1003D0003D0AD7233C17B7D13877CC2B329595E619
:1003E000241FB14F0A000020410000C84200401CF9
:1003F0004620BCBE4CCA1B0E5AAEC59D7400407A46
:1004000010F35A00A0724E18090010A5D4E800009D
:10041000E87648170000E40B54020000CA9A3B003B
:100420000000E1F505000080969800000040420FB2
:10043000000000A08601000000102700000000E876
:1004400003000000006400000000000A000000003B
:10045000000100000000002C76D888DC674F0823DC
:10046000DFC1DFAE59E1B1B796E5E3E453C63AE642
:1004700051997696E8E6C28426EB898C9B62ED4022
:100480007C6FFCEFBC9C9F40F2BAA56FA5F4900571
:100490005A2AF75C936B6CF9676DC11BFCE0E40DA5
:1004A00047FEF520E6B500D0ED902E030094357799
:1004B000050080841E080000204E0A000000C80CC1
:1004C000333333330F986E12831141EF8D2114892A
:1004D0003BE65516CFFEE6DB18D1844B381BF77C84
:1004E0001D901DA4BBE424203284725E228100C9C9
:1004F000F124ECA1E53D27F904363726033C3D38CD
:100500000E0F2E303E121A1C1824221E0A430745D5
:100510000900011000C90210012C014001220170E4
:10052000011801B0010E01F00104015002FA00B0FF
:1005300002F0003003E600D003DC009004D200702B
:1005400005C800A006BE000008B400B009AA00D08B
:100550000BA000600E960060118C00001582002038
:10056000197800C01D6E00A0226400B0275A0090C8
:100570002C500000314600E0343C0010383200902E
:100580003A2800603C1E00A03D1400803E0A002076
:100590003F0000726F746174696F6E206D617472D8
:1005A00069783A0A001000C90210012C01400122AA
:1005B0000170011801B0010E01F00104015002FAAE
:1005C00000B002F0003003E600D003DC009004D25B
:1005D000007005C800A006BE000008B400B009AA5B
:1005E00000D00BA000600E960060118C00001582F8
:1005F0000020197800C01D6E00A0226400B0275AA8
:1006000000902C500000314600E0343C001038329D
:1006100000903A2800603C1E00A03D1400803E0A75
:1006200000203F00005A5F6D6F76655F636F6D70ED
:100630000A00616C736F20656E61626C6564290AE3
:1006400000206E6F742064697361626C65642E2093
:100650005368617265642077697468002E0A00002F
:10066000473238580047323859004732385A004D1F
:1006700038340047323950345254004732395034FC
:1006800054004732380A47323643504825690047FC
:1006900032380A47323620432053302E3420483235
:1006A0003035204C302E32004732380A473236205F
:1006B000432053302E362048323130204C302E33F8
:1006C000004732380A47323620432053302E382034
:1006D00048323130204C302E34004732380A47320D
:1006E0003620432053312E302048323135204C30D3
:1006F0002E35004732380A47323620432053302EF9
:10070000342048323430204C302E32004732380A00
:1007100047323620432053302E36204832343020A2
:100720004C302E33004732380A47323620432053AC
:10073000302E382048323435204C302E34004732A9
:10074000380A47323620432053312E302048323584
:1007500030204C302E35004732394A32004732398A
:1007600050335430004732395032425430004D65D6
:10077000736820696E76616C6964617465642E0AC1
:10078000004732380A4D31303949300A4732395042
:10079000310A4D31303453300A4D3134305330004A
:1007A0004732380A4D31303949310A4732395031F0
:1007B0000A4D31303453300A4D3134305330004714
:1007C0003239543000473239532D31004732394ED7
:1007D00050310047323950335430004732395034A9
:1007E00052540047323944004732394100473239C8
:1007F0005700417869732000206D696E3A00206DC2
:1008000061783A00534C4F57000E00000A01000D6A
:10081000000A01000F090000000F000800434F4DBF
:100820004D554E49434154494F4E0044525952553B
:100830004E004552524F525300494E464F004543D9
:10084000484F004572726F722077726974696E67E3
:1008500020746F20454550524F4D210A0053544F8C
:10086000505045442E20005072696E74657220739A
:10087000746F707065642064756520746F20657294
:10088000726F72732E2046697820746865206572D5
:10089000726F7220616E6420757365204D3939392D
:1008A00020746F20726573746172742E20285465F1
:1008B0006D706572617475726520697320726573FD
:1008C00065742E20536574206974206166746572A6
:1008D0002072657374617274696E67290A004E6FC5
:1008E00020436865636B73756D2077697468206C4D
:1008F000696E65206E756D6265722C204C61737433
:10090000204C696E653A20004E6F20436865636B2A
:1009100073756D2077697468206C696E65206E75DB
:100920006D6265722C204C617374204C696E653A5F
:100930002000636865636B73756D206D69736D610D
:100940007463682C204C617374204C696E653A2086
:10095000004C696E65204E756D626572206973206A
:100960006E6F74204C617374204C696E65204E75F7
:100970006D6265722B312C204C617374204C696E52
:10098000653A20004D3131300053657269616C2049
:10099000737461747573206D69736D617463680A33
:1009A0000053442072656164206572726F720A00A0
:1009B000746F6F206D75636820696E61637469760A
:1009C000652074696D65202D2063757272656E7483
:1009D00020636F6D6D616E643A20002121204B49C8
:1009E0004C4C2063617573656420627920006275E8
:1009F00073793A2070617573656420666F7220693F
:100A00006E7075740A00627573793A20706175733F
:100A1000656420666F7220757365720A0062757373
:100A2000793A2070726F63657373696E670A004D5F
:100A3000656469612052656D6F766564004D65641B
:100A4000696120496E736572746564004D313030A0
:100A50003053004D36303000506C65617365205264
:100A600065736574005052494E5445522048414CBC
:100A70005445440025533A202553004B494C4C45DE
:100A8000442E20005072696E7465722068616C7427
:100A900065642E206B696C6C28292063616C6C6521
:100AA00064210A00006563686F3A004572726F72D4
:100AB0003A00204A0020204D3432312049002020C5
:100AC00047323920493939390A00556E69666965F6
:100AD0006420426564204C6576656C696E670061D0
:100AE00063746976650A00696E0000205379737437
:100AF000656D2076312E303120002020207C0A00C8
:100B00004E414E0020202E20202000207C00206618
:100B10006F7220004C43443A0A004353563A0A008D
:100B20003A0A0A000A42656420546F706F67726166
:100B3000706879205265706F72740050726F6269CC
:100B40006E67204661696C65640A0050726F626965
:100B50006E67204661696C656400205A3A20002067
:100B6000593A200042656420583A20004732384CF8
:100B70003000446F6E652E0A003F496E76616C69E5
:100B8000642073746F7261676520736C6F742E0AD2
:100B90003F557365203020746F20003F454550520B
:100BA0004F4D2073746F72616765206E6F742061A2
:100BB0007661696C61626C652E0A00446F6E652E09
:100BC0000A003F496E76616C69642073746F7261CC
:100BD000676520736C6F742E0A3F55736520302053
:100BE000746F20003F454550524F4D2073746F7213
:100BF000616765206E6F7420617661696C61626CFB
:100C0000652E0A004732392050322066696E6973BA
:100C10006865642E0A005859206F7574736964659D
:100C2000207072696E7461626C65207261646975AE
:100C3000732E0A003F4572726F7220696E204275F2
:100C400073696E6573732043617264206D656173AF
:100C50007572656D656E742E0A004D616E75616CFE
:100C60006C792070726F62696E6720756E72656153
:100C7000636861626C6520706F696E74732E0A0020
:100C8000292E0A0A0050726F62696E672061726FC6
:100C9000756E642028004D65736820696E76616CFE
:100CA0006964617465642E2050726F62696E67209A
:100CB0006D6573682E0A004D657368207A65726FE2
:100CC00065642E0A0044656661756C742073746FE8
:100CD0007261676520736C6F7420302073656C657A
:100CE000637465642E0A004170706C79696E6720C8
:100CF00074657374207061747465726E2E0A0A00D4
:100D00003F496E76616C69642028512920746573AF
:100D100074207061747465726E2E20283020746F98
:100D20002032290A0A0020696E76616C6964617458
:100D300065642E0A0A004C6F636174696F6E7300FC
:100D4000456E74697265204D657368005374616EF9
:100D50006461726420446576696174696F6E3A20DB
:100D6000004D65616E204D65736820486569676850
:100D7000743A200023206F662073616D706C657378
:100D80003A20000A4D657368206F6E6C792070619F
:100D9000727469616C6C7920706F70756C617465C8
:100DA000642E0A0A0050726F62696E6720506F6984
:100DB0006E740025532025692F2569002E0A002F07
:100DC0000050726F62696E67206D65736820706F86
:100DD000696E74200020616E642074616B6520610F
:100DE000206D6561737572656D656E742E0A006D98
:100DF0006D20746869636B2E0A00427573696E65B5
:100E000073732043617264206973200052656D6FB3
:100E100076652026204D6561737572652042656494
:100E20000052656D6F7665207368696D00506C6166
:100E30006365207368696D20756E646572206E6FDE
:100E40007A7A6C65000A4D657368206F6E6C792044
:100E50007061727469616C6C7920706F70756C610F
:100E60007465642E0A004D65736820506F696E7456
:100E7000204D656173757265642061743A20004D80
:100E8000656173757265004D6561737572650050BB
:100E90006C616365205368696D2026204D65617320
:100EA00075726500506C616365205368696D20261A
:100EB000204D656173757265004D6F76696E6720B0
:100EC000746F206E657874004D65736820456469A1
:100ED00074696E672053746F7070656400446F6E40
:100EE000652045646974696E67204D6573680A0002
:100EF000446F6E652045646974696E67204D657343
:100F0000680046696E652054756E696E67204D6590
:100F100073680028582C5929206F757473696465AB
:100F2000207072696E7461626C65207261646975AB
:100F3000732E0A004F6666736574206F7574206F98
:100F40006620626F756E64732E20283020746F20C7
:100F500031306D6D290A0A00496E76616C69642032
:100F60006D617020747970652E0A0A003F28462949
:100F70006164652068656967687420666F722042E5
:100F80006564204C6576656C20436F72726563748E
:100F9000696F6E206E6F7420706C61757369626C1E
:100FA000652E0A0A003F43616E27742061637469ED
:100FB0007661746520616E6420646561637469762E
:100FC000617465206174207468652073616D6520AB
:100FD00074696D652E0A0A00426F746820582026D5
:100FE0002059206C6F636174696F6E73206D757327
:100FF00074206265207370656369666965642E0A92
:101000000A003F496E76616C6964206772696420EA
:1010100073697A6520284A29207370656369666957
:1010200065642028322D39292E0A0A003F285029CC
:10103000686173652076616C756520696E76616C98
:1010400069642028302D36292E0A0A003F285629A7
:101050006572626F7365206C6576656C20696D7072
:101060006C61757369626C652028302D34292E0AF5
:101070000A003F285229657065746974696F6E2093
:10108000636F756E7420696E76616C6964202831B7
:101090002B292E0A0A00446F696E672047323900F7
:1010A000180813080E0809085D0A006265642070BC
:1010B0006C616E65206E6F726D616C203D205B000F
:1010C000436F756C64206E6F7420636F6D706C6518
:1010D0007465204C53462100436F727265637465DA
:1010E000645F5A3D0025532025692F2569000A0AAF
:1010F000002F0054696C74696E67206D65736820F9
:10110000706F696E7420003F4572726F722070724A
:101110006F62696E6720706F696E742E2041626F16
:101120007274696E67206F7065726174696F6E2E7C
:101130000A00436F727265637465645F5A3D0025EF
:101140005320332F330054696C74696E67206D65CA
:1011500073682028332F33290A00436F7272656346
:101160007465645F5A3D00255320322F3300546963
:101170006C74696E67206D6573682028322F33297F
:101180000A00436F727265637465645F5A3D005470
:10119000696C74696E6720506F696E740025532006
:1011A000312F330054696C74696E67206D65736804
:1011B0002028312F33290A00646F6E650A00496EBA
:1011C00073756666696369656E7420646174610A2B
:1011D000004578747261706F6C6174696E67206D20
:1011E0006573682E2E2E000000803F721C894272AB
:1011F0001C0843ABAA4B43729C87438E63A943AB45
:101200002ACB43C8F1EC43725C0744004018440009
:1012100000803F9224AD4292242C436EDB804392A7
:10122000A4AB43B66DD6436E9B00440000164492B7
:10123000642B4424C94044B62D564449926B446EF5
:101240007B8044B72D8B4400E09544486F74656EF5
:101250006420746F6F20636F6C640A005072657352
:101260007320627574746F6E20746F20726573756D
:101270006D650A00496E736572742066696C616DF4
:10128000656E7420616E6420707265737320627580
:1012900074746F6E0A005072657373206275747493
:1012A0006F6E20746F2068656174206E6F7A7A6C3F
:1012B000650A00496E736572742066696C616D65BC
:1012C0006E7420616E642070726573732062757431
:1012D000746F6E0A004732362043616E63656C6539
:1012E00064004732362048656174696E67204E6F2E
:1012F0007A7A6C650057616974696E6720666F72EF
:10130000206865617475702E0A00466978656420EE
:101310004C656E677468205072696D6500446F6E2D
:1013200065205072696D696E67004D616E75616C04
:10133000207072696D696E672E2E2E004C65617685
:10134000696E6720473236003F537065636966698E
:10135000656420582C5920636F6F7264696E6174E4
:1013600065206F7574206F6620626F756E64732ED2
:101370000A003F28522965706561742076616C759A
:1013800065206E6F7420706C61757369626C653B6B
:10139000206D757374206265206174206C656173C3
:1013A0007420312E0A003F53706563696669656475
:1013B000206E6F7A7A6C652074656D7065726174E9
:1013C000757265206E6F7420706C61757369626CE4
:1013D000652E0A003F53706563696669656420661F
:1013E000696C616D656E742073697A65206E6F74C7
:1013F00020706C61757369626C652E0A003F5370D2
:1014000065636966696564207072696D65206C65E5
:101410006E677468206E6F7420706C61757369629A
:101420006C652E0A003F53706563696669656420C8
:101430006E6F7A7A6C652073697A65206E6F74209E
:10144000706C61757369626C652E0A003F52657439
:1014500072616374696F6E204D756C7469706C692C
:101460006572206D757374206265207370656369A1
:10147000666965642E0A003F537065636966696535
:10148000642052657472616374696F6E204D756C6F
:101490007469706C696572206E6F7420706C617510
:1014A0007369626C652E0A003F53706563696669F3
:1014B0006564206C6179657220686569676874206D
:1014C0006E6F7420706C61757369626C652E0A00B2
:1014D000473236207374617274696E672E2E2E0A3D
:1014E000004F46460A0046616465204865696768A2
:1014F000742000426564204C6576656C696E6720D7
:10150000004661696C656420746F20656E61626C71
:101510006520426564204C6576656C696E670A00DB
:10152000496E76616C6964206D6573682E0A007679
:10153000616C69640A53746F7261676520736C6FC4
:10154000743A2000696E004D65736820697320004D
:101550003F557365203020746F20003F496E7661DF
:101560006C69642073746F7261676520736C6F744B
:101570002E0A003F454550524F4D2073746F7261E3
:101580006765206E6F7420617661696C61626C655D
:101590002E0A0020440020204D32303020540020FC
:1015A000204D323030205300202844697361626C32
:1015B0006564293A0046696C616D656E74207365D7
:1015C0007474696E67730020204D323031205800EA
:1015D0004D617820416363656C65726174696F6EFB
:1015E0002028756E6974732F7332290020204D32C4
:1015F00030332058004D61782066656564726174EF
:1016000065732028756E6974732F7329002052004A
:1016100020204D323034205000416363656C657288
:101620006174696F6E2028756E6974732F73322927
:101630002028503C7072696E742D616363656C3E46
:1016400020523C726574726163742D616363656CD2
:101650003E20543C74726176656C2D616363656CE9
:101660003E290020540020530020204D32303520E8
:101670004200416476616E6365642028423C6D6976
:101680006E5F7365676D656E745F74696D655F75B8
:10169000733E20533C6D696E5F666565647261746C
:1016A000653E20543C6D696E5F74726176656C5F57
:1016B00066656564726174653E20583C6D61785F53
:1016C0006A65726B3E20593C6D61785F6A65726B2A
:1016D0003E205A3C6D61785F6A65726B3E20453CE6
:1016E0006D61785F6A65726B3E290020204D323152
:1016F0003700546F6F6C2D6368616E67696E6700A9
:1017000020204D323138205400486F74656E6420BB
:101710006F66667365747300203B00205500204C93
:101720000020204D36303320540046696C616D65D1
:101730006E74206C6F61642F756E6C6F6164004D08
:10174000323453256C6454256C64004739322E3989
:101750004525730047314625640047315A257346B5
:1017600036303000473158257359257346333030B1
:1017700030004D31303650256953256900542569B4
:101780002053004D313039532569005425695300E9
:101790004D3230305425694430004D3230305425BC
:1017A00069442573004739322E395A2573004D3468
:1017B00032305325635A2573004732385230585916
:1017C0000047315A257346363030004739322E39BA
:1017D0005A2573004739322E394530004D313039A2
:1017E0005325690054256953004D3432302053305D
:1017F000205A3000203B200020204D34313320532C
:1018000000506F7765722D6C6F7373207265636F14
:1018100076657279003B200020496E76616C6964C0
:10182000206578747275646572200047322F4733E3
:101830002062616420706172616D65746572730A03
:1018400000536C6565702E2E2E00205A3A20002021
:10185000593A200042656420583A20004D6573686B
:1018600020706F696E74206F7574206F66207261CE
:101870006E67650A00436C69636B20746F20526564
:1018800073756D652E2E2E004E6F204D6F76652E72
:1018900000456E642066696C65206C6973740A008B
:1018A000426567696E2066696C65206C6973740AAD
:1018B000004E6F206D656469610A00286E6F2066B6
:1018C000696C65290043757272656E742066696C77
:1018D000653A20004E6F74205344207072696E7414
:1018E000696E670A005344207072696E74696E678E
:1018F000206279746520002569730025696D2025B3
:101900006973002569682025696D202569730025A4
:101910006964202569682025696D20256973002583
:10192000697920256964202569682025696D20254D
:101930006973005072696E742074696D653A200095
:101940006F6B006F6666003E08390832082B081D71
:101950000844454255473A004D31313220536875AD
:1019600074646F776E004D3131332053004D6F64D6
:101970006978204269672D31323058204F46462E13
:10198000002F2F004D31343520533C696E6465784B
:101990003E206F7574206F662072616E6765202827
:1019A000302D31290A005741524E494E4721204CD3
:1019B0006F77205A204A65726B206D6179206C65C3
:1019C000616420746F20756E77616E746564207039
:1019D00061757365732E0A0020580020204D6178D0
:1019E0003A2000200020204D696E3A2000203B2044
:1019F0000020204D323131205300536F6674206532
:101A00006E6473746F70730046523A0020466C6FB8
:101A1000773A20003A200020536572766F2000202C
:101A20006F7574206F662072616E67650A0053657A
:101A300072766F200064697300656E0043290A00A6
:101A400061626C656420286D696E2074656D70201C
:101A500000436F6C642065787472756465732061EF
:101A6000726520004F4646004F4E006D6D00203BD2
:101A70002044697374616E6365200046696C616D12
:101A8000656E742072756E6F757420004D65736895
:101A900020706F696E74206F7574206F662072619C
:101AA0006E67650A004D34323120696E636F727261
:101AB00065637420706172616D6574657220757301
:101AC0006167650A004F66667365747320417070C4
:101AD0006C696564004572723A20546F6F206661CC
:101AE000722100546F6F206661722066726F6D20E4
:101AF0007265666572656E636520706F696E740AE3
:101B000000454550524F4D204F4B0A00290A0020F6
:101B1000746F20003F5A206F7574206F66207261C9
:101B20006E6765202800290A0020746F20003F5945
:101B3000206F7574206F662072616E676520282D96
:101B400000290A0020746F20003F58206F75742010
:101B50006F662072616E676520282D004D383458FD
:101B6000594500446F6E65207072696E74696E67C6
:101B70002066696C650A004D3737004D33310050DF
:101B800045544700504C41004D3330362054004DF1
:101B90005043204175746F74756E6500436F6F6CB0
:101BA000646F776E0046616E205370656564004E09
:101BB0006F7A7A6C65207E0050726568656174206A
:101BC00024004D61696E0042616279737465702012
:101BD0005A004261627973746570204000466C6FF0
:101BE00077207E00466C6F770046616E20537065EB
:101BF0006564004E6F7A7A6C65207E00537065656F
:101C000064004D61696E005A2056616C756500472D
:101C100032380A4D313039205325690A473239208C
:101C2000503100486F74656E642054656D70002EED
:101C30002569004732395036432D00486569676889
:101C40007420416D6F756E740041646A7573742001
:101C50004D657368204865696768740046696E65FC
:101C60002054756E6520436C6F7365737400473242
:101C7000395034540046696E652054756E652041B4
:101C80006C6C00473239503452540056616C6964B0
:101C9000617465204D6573682028504554472900BC
:101CA00056616C6964617465204D657368202850C5
:101CB0004C412900504C41204E6F7A7A6C653A3184
:101CC0002E30004732380A47323620432053312E17
:101CD000302048323135204C302E3500504C4120D8
:101CE0004E6F7A7A6C653A302E38004732380A47A0
:101CF000323620432053302E382048323130204CA9
:101D0000302E3400504C41204E6F7A7A6C653A3058
:101D10002E36004732380A47323620432053302EC1
:101D2000362048323130204C302E3300504C412088
:101D30004E6F7A7A6C653A302E34004732380A4753
:101D4000323620432053302E342048323035204C58
:101D5000302E3200496E666F2053637265656E00E7
:101D600050455447204E6F7A7A6C653A312E3000D8
:101D70004732380A47323620432053312E3020482C
:101D8000323530204C302E350050455447204E6FB0
:101D90007A7A6C653A302E38004732380A47323644
:101DA00020432053302E382048323435204C302EFA
:101DB000340050455447204E6F7A7A6C653A302E85
:101DC00036004732380A47323620432053302E3609
:101DD0002048323430204C302E33005045544720B8
:101DE0004E6F7A7A6C653A302E34004732380A47A3
:101DF000323620432053302E342048323430204CA9
:101E0000302E32004C6576656C204D65736800534A
:101E100069646520506F696E74730047726964204D
:101E20004D657368204C6576656C696E6700342D6E
:101E3000506F696E74204C6576656C696E670047FB
:101E400032394A3200473239503352432E25690025
:101E50004D616E75616C2046696C6C2D696E004732
:101E60003239503242543000536D617274204669E9
:101E70006C6C2D696E00473239503354300046691E
:101E80006C6C2D696E20416D6F756E7400841B7FC4
:101E90001B46696C6C2D696E204D65736800427538
:101EA000696C6420437573746F6D204D65736800B1
:101EB0004732380A4D31303949310A4732395031C9
:101EC0000A4D31303453300A4D31343053300042F2
:101ED00075696C64204D6573682028242900473299
:101EE000380A4D31303949300A47323950310A4DBC
:101EF00031303453300A4D313430533000473239A9
:101F0000256325690A4D31313720004D65736820FE
:101F10002569204C6F61646564004D6573682025F8
:101F2000692053617665640053617665204265647B
:101F3000204D657368004C6F616420426564204DDC
:101F4000657368004D656D6F727920536C6F740016
:101F50004E6F2053746F7261676500473239503499
:101F600058257359257352256900202D2D2D2D2DAF
:101F7000005A3A00593A00486F6D696E6720585907
:101F80005A00473238004F6666205072696E746599
:101F900072204261636B757000473239532D3100F6
:101FA0004F757470757420666F7220486F7374007B
:101FB0004732395430004D657368204C6576656C46
:101FC000696E670045646974204D657368004275E9
:101FD000696C64204D65736800352E205361766509
:101FE00020426564204D65736800342E2046696E7A
:101FF000652054756E6520416C6C00473239503451
:10200000525400332E2056616C6964617465204D12
:1020100065736800322E20536D6172742046696CBE
:102020006C2D696E004732395033543000312E2008
:102030004275696C6420436F6C64204D6573680061
:102040004732394E503100556E69666965642042E9
:102050006564204C6576656C696E67004F757470B9
:1020600075742055424C20496E666F0047323957CF
:102070000055424C20546F6F6C73004F757470752F
:1020800074204D657368204D6170004D6573682044
:1020900053746F72616765004D65736820456469AC
:1020A0007400537465702D42792D537465702055FA
:1020B000424C004661646520486569676874004168
:1020C000637469766174652055424C00473239412A
:1020D00000446561637469766174652055424C0003
:1020E00047323944004261636B004732394A2569FF
:1020F000006F70656E005452494747455245440091
:102100003A200066696C616D656E74007A5F6D6976
:102110006E00795F6D617800795F6D696E00785F40
:102120006D696E005265706F7274696E6720656EBE
:102130006473746F70207374617475730A000000A7
:10214000964400801844000016440000000000007F
:1021500000000000000020636F6C642065787472DA
:102160007573696F6E2070726576656E7465640A4A
:102170000000000000008018440000000057617259
:102180006E696E673A20486F6D696E672042756DA3
:10219000702044697669736F72203C20310A000216
:1021A0000204000096440080184400001644000019
:1021B000A0400000A0400000004020636F6C64203D
:1021C000657874727573696F6E2070726576656E6E
:1021D0007465640A0053544F505045442E200050FB
:1021E00072696E7465722073746F707065642064B8
:1021F000756520746F206572726F72732E20466948
:102200007820746865206572726F7220616E642038
:10221000757365204D39393920746F207265737478
:102220006172742E202854656D70657261747572C8
:10223000652069732072657365742E205365742060
:10224000697420616674657220726573746172745A
:10225000696E67290A00206572726F72202D2072E4
:102260006573746172742077697468204D393939E7
:102270000A00424C546F7563680021212053544F6B
:10228000502063616C6C6564206265636175736581
:10229000206F66200053657474696E6773205374F1
:1022A0006F72656400290A002062797465733B20AF
:1022B000637263200053657474696E67732053748E
:1022C0006F7265642028004D6573682073617665C0
:1022D0006420696E20736C6F7420003F556E6162DC
:1022E0006C6520746F2073617665206D657368205E
:1022F000646174612E0A0020736C6F743D00206D60
:1023000065736865735F656E643D004532454E4494
:102310003D00206D65736820736C6F747320617667
:1023200061696C61626C652E0A003F496E76616C72
:10233000696420736C6F742E0A004D657368206C9D
:102340006F616465642066726F6D20736C6F7420BA
:10235000003F556E61626C6520746F206C6F616424
:10236000206D65736820646174612E0A0048617293
:1023700064636F6465642044656661756C742053A2
:10238000657474696E6773204C6F616465640020C6
:10239000286D6D2900203B204C6576656C696E6761
:1023A000200020204D343230205300556E6966697C
:1023B000656420426564204C6576656C696E6700D3
:1023C00020460020480020204D3134352053004D58
:1023D0006174657269616C206865617475702070E4
:1023E0006172616D657465727300203B2053656E88
:1023F000736F72200020440020204D34313220536E
:102400000046696C616D656E742072756E6F7574CF
:102410002073656E736F7200206D65736865732E2F
:102420000A0A00454550524F4D2063616E20686F87
:102430006C642000416374697665204D6573682083
:10244000536C6F74200020204D3134392043203BE1
:1024500020556E69747320696E2043656C736975CD
:10246000730A0054656D70657261747572652055EC
:102470006E697473002020473231203B004C696E36
:1024800065617220556E697473003F4D65736820F5
:10249000746F6F2062696720666F722045455052E5
:1024A0004F4D2E0A00454550524F4D2064617461D6
:1024B00073697A65206572726F722E0A0055424CFC
:1024C0002072657365740A00206C6F616465642016
:1024D00066726F6D2073746F726167652E0A004DAE
:1024E0006573682000290A002062797465733B20B7
:1024F00063726320002073746F7265642073657467
:1025000074696E677320726574726965766564209C
:102510002800202863616C63756C617465642921EF
:102520000A0020213D2000454550524F4D20435286
:1025300043206D69736D61746368202D2028737466
:102540006F7265642920002053697A653A2000493A
:102550006E6465783A2000000096430000964300C0
:1025600000A0400000C841000048430000C84200ED
:1025700000FA440040D143B0040000B004000064FD
:1025800000000010270000204D61726C696E3D56FE
:102590003836290A00454550524F4D2076657273F2
:1025A000696F6E206D69736D61746368202845459D
:1025B00050524F4D3D0020436F756E7420583A00C5
:1025C00045310045320045002C2073797374656DE8
:1025D0002073746F70706564212048656174657242
:1025E0005F49443A2000544845524D414C205255D1
:1025F0004E4157415900546865726D616C205275A7
:102600006E617761790048656174696E6720466123
:10261000696C65640048656174696E67206661690C
:102620006C6564004572723A204D415854454D50D6
:10263000004D415854454D5020747269676765726A
:102640006564004572723A204D494E54454D500024
:102650004D494E54454D50207472696767657265E7
:102660006400202F0020400020403A0020573A000C
:1026700020696E746572727570746564210A004D0C
:102680005043204175746F74756E6500496E7661B4
:102690006C69642065787472756465720A004163C0
:1026A000746976652045787472756465723A2000A5
:1026B0001FE020102310249010A0112022102410BD
:1026C00037B00840048003001FE0201021102310C1
:1026D0001520112021102110313008400480030002
:1026E0001FE03FF03CF03B701F601EE03DF03BF010
:1026F00038700FC0078003001FE03FF03EF03CF051
:102700001AE01EE03EF03EF03EF00FC007800300EE
:10271000554E4C4F41442046494C414D454E540086
:102720004C4F41442046494C414D454E540046498A
:102730004C414D454E54204348414E4745002020D2
:102740004D323036205800486F6D65206F666673D5
:102750006574004361703A00434F4E4649475F45F8
:1027600058504F5254004D4541545041434B004343
:102770004F4F4C45525F54454D5045524154555270
:1027800045004348414D4245525F54454D504552E6
:1027900041545552450042414259535445505049C5
:1027A0004E470041524353004D4F54494F4E5F4DE9
:1027B0004F44455300544845524D414C5F50524F91
:1027C00054454354494F4E00455854454E444544A2
:1027D0005F4D323000435553544F4D5F4649524D83
:1027E000574152455F55504C4F4144004C464E5F57
:1027F0005752495445004C4F4E475F46494C454E51
:10280000414D45004155544F5245504F52545F532E
:10281000445F5354415455530053445F57524954F5
:102820004500524550454154004D554C54495F5662
:102830004F4C554D45005344434152440050524F74
:102840004D50545F535550504F525400484F5354BD
:102850005F414354494F4E5F434F4D4D414E4453AA
:1028600000454D455247454E43595F5041525345EF
:102870005200434153455F4C494748545F425249D7
:102880004748544E45535300544F47474C455F4CBF
:10289000494748545300534F4654574152455F509F
:1028A0004F574552004255494C445F5045524345AD
:1028B0004E54004C4556454C494E475F44415441A7
:1028C000005A5F50524F42450052554E4F555400EA
:1028D0004155544F4C4556454C005052494E545F5B
:1028E0004A4F420050524F475245535300415554AE
:1028F0004F5245504F52545F54454D50004155542E
:102900004F5245504F52545F504F5300564F4C5505
:102910004D455452494300454550524F4D004249A0
:102920004E4152595F46494C455F5452414E5346C1
:1029300045520053455249414C5F584F4E5F584FE6
:102940004646004649524D574152455F4E414D451E
:102950003A4D61726C696E20322E312E3120284A38
:10296000616E20203620323032332030393A353211
:102970003A35382920534F555243455F434F44451C
:102980005F55524C3A6769746875622E636F6D2F9C
:102990004D61726C696E4669726D776172652F4D1B
:1029A00061726C696E2050524F544F434F4C5F56CA
:1029B000455253494F4E3A312E30204D41434849FC
:1029C0004E455F545950453A4D6F646978204269CD
:1029D000672D313230582045585452554445525F86
:1029E000434F554E543A3220555549443A63656435
:1029F00065326132662D343161322D343734382DF1
:102A0000396231322D633535633632663336376697
:102A1000660A00203B0020204D3835312058005AEE
:102A20002D50726F6265204F666673657400452590
:102A300063202553004D50435F414D4249454E545C
:102A40005F584645525F434F4546465F46414E32CA
:102A5000353520004D50435F414D4249454E545F4E
:102A6000584645525F434F45464620004D50435F10
:102A700053454E534F525F524553504F4E53495654
:102A8000454E45535320004D50435F424C4F434BFE
:102A90005F484541545F43415041434954592000E8
:102AA0002066696E697368656421205075742074AE
:102AB000686520636F6E7374616E74732062656CF9
:102AC0006F7720696E746F20436F6E6669677572E9
:102AD0006174696F6E2E680A004D50432041757411
:102AE0006F74756E650054656D7065726174757292
:102AF00065206572726F720A0054657374696E673F
:102B00002068656174206C6F7373004D6561737527
:102B100072696E6720616D6269656E7420686561B7
:102B2000746C6F7373206174200048656174696E02
:102B3000672E2E2E0048656174696E6720746F20C1
:102B40006F76657220323030430A00436F6F6C69D4
:102B50006E672E2E2E00436F6F6C696E6720746F48
:102B600020616D6269656E740A002073746172740D
:102B700020666F722045004D5043204175746F747C
:102B8000756E65002048002046002041002052005C
:102B900020430020500020204D3330362045004D8A
:102BA0006F64656C20707265646963746976652012
:102BB000636F6E74726F6C004572723A2075746642
:102BC0003820666F6E74206E6F7420696E69746948
:102BD000616C697A65642E004572723A207574667C
:102BE0003820666F6E74206E6F7420696E69746928
:102BF000616C697A65642E004572723A207574665C
:102C00003820666F6E74206E6F7420696E69746907
:102C1000616C697A65642E002568753A25303268E2
:102C2000750025303268753A2530326875002530D8
:102C3000326875272530326875002568756420254F
:102C4000303268753A253032687500426564004557
:102C50006E636C6F73757265002020202020202029
:102C600000202020200065727200C826B026F826B9
:102C7000E0263FFFF038007030FC3020FC10207858
:102C8000102030102C00D02E31D02F7BD02F7BD0B5
:102C90002E31D02C00D020301020781020FC1030A5
:102CA000FC303800703FFFF03FFFF0380070318695
:102CB000302387102787902F87D02F03D020301004
:102CC0002078102078102030102F03D02F87D027A5
:102CD00087902387103186303800703FFFF04D6FAA
:102CE000646978204269672D31323058205265611D
:102CF00064792E005072696E74696E672E2E2E00F4
:102D00005072696E742041626F72746564004D3256
:102D10003520500A4D3234005072696E7420506173
:102D2000757365640050617573696E672E2E2E0091
:102D30004D323400454550524F4D205665727369EF
:102D40006F6E204572726F7200454550524F4D2094
:102D5000496E646578204572726F72004545505225
:102D60004F4D20435243204572726F72003F00491D
:102D7000676E6F726500526573657400496E6974A1
:102D800069616C697A6520454550524F4D004D6927
:102D90006E2054726176656C205370656564004DD9
:102DA000696E2056656C6F63697479004D61782097
:102DB00040205370656564004D6178204520416373
:102DC00063656C004D6178204020416363656C0051
:102DD00054726176656C20416363656C0052657462
:102DE0007261637420416363656C00416363656C69
:102DF000004D61782040204A65726B00402073745A
:102E00006570732F6D6D00416476616E636564203B
:102E100053657474696E6773003F0043616E636548
:102E20006C00496E697400496E697469616C697AF5
:102E30006520454550524F4D0053746570732F6D9A
:102E40006D004A65726B00416363656C6572617405
:102E5000696F6E004D617820537065656420286D40
:102E60006D2F732900436F6E6669677572617469AF
:102E70006F6E004E6F7A7A6C650046616E205370FB
:102E800065656400436F6E66696775726174696F2A
:102E90006E00526573746F72652044656661756C6F
:102EA0007473004C6F61642053657474696E67734A
:102EB0000053746F72652053657474696E67730094
:102EC00050726568656174202420436F6E660050FF
:102ED0006F776572204F7574616765004F66660095
:102EE0004F6E0052756E6F75742053656E736F72FE
:102EF0000050726F6265205A204F666673657400D9
:102F0000416476616E6365642053657474696E67AD
:102F100073004D61696E004D3730322054256400D6
:102F20004D36303020423020542564004D37303249
:102F3000203B2564004D3730312054256400436820
:102F4000616E67652046696C616D656E74005072D4
:102F5000656865617420437573746F6D00507265A8
:102F6000686561742024004261636B004368616E90
:102F700067652046696C616D656E74202A00476F35
:102F800020746F207468652046726F6E740047323B
:102F9000380A204731205833303020593530204608
:102FA00035303030004D61696E00436F6E74696E6C
:102FB0007565004F6666004F6E0052756E6F7574D2
:102FC0002053656E736F72005075726765206D6F68
:102FD000726500524553554D45204F5054494F4E50
:102FE000533A005052494E542050415553454400E5
:102FF00020204E6F7A7A6C653A20005061726B69BE
:103000006E672E2E2E0000005761697420666F7265
:103010000066696C616D656E74206368616E6765DA
:1030200000746F2073746172740057616974206654
:103030006F720066696C616D656E7420756E6C6F81
:10304000616400004E6F7A7A6C652068656174690E
:103050006E6700506C6561736520776169742E2E10
:103060002E0000507265737320627574746F6E0069
:10307000746F2068656174206E6F7A7A6C650000E9
:10308000496E736572742066696C616D656E74005B
:10309000616E6420707265737320627574746F6EF4
:1030A00000746F20636F6E74696E75650057616997
:1030B0007420666F720066696C616D656E74206C59
:1030C0006F61640000507265737320427574746F91
:1030D0006E00746F20726573756D65207072696E15
:1030E0007400005761697420666F72207072696E97
:1030F0007400746F20726573756D652E2E2E00003E
:103100005761697420666F720066696C616D656EE7
:103110007420707572676500004D36303020423083
:1031200020542569004D313030300053746F7020C9
:103130005072696E7400526573756D6520507269C6
:103140006E7400506F776572204F7574616765000B
:103150003F0053746F70004E6F204D6564696100CD
:103160005072696E742066726F6D204D656469617E
:1031700000313230582043616C6962726174696F4A
:103180006E004368616E67652046696C616D656EAF
:103190007400436F6E66696775726174696F6E0063
:1031A00054656D7065726174757265004D6F7469F8
:1031B0006F6E004175746F20486F6D6500507265C9
:1031C0006865617420437573746F6D005265737523
:1031D0006D65205072696E740054756E650053748D
:1031E0006F70205072696E74005061757365205065
:1031F00072696E7400496E666F2053637265656E06
:10320000005A204F66667365742043616C69627270
:103210006174696F6E00556E696669656420426508
:1032200064204C6576656C696E670054696C742027
:1032300043616C6962726174696F6E0050726F6293
:10324000652043616C6962726174696F6E004D61E3
:10325000696E00332E20536176652053657474695E
:103260006E6773004D3231312053310A20473238B6
:1032700000473238205820590A204731205833302F
:1032800030205935302046353030300A204D32312B
:10329000312053300A20473238205A00342E204340
:1032A000616C696272617465205269676874003389
:1032B0002E2043616C696272617465204C6566748E
:1032C00000322E2041646A7573742048656967680E
:1032D00074285A2900312E20537461727420507260
:1032E0006F6365737300473238205820590A2047AE
:1032F0003120583630302059333030204635303088
:103300003000322E476F20746F2046726F6E74202B
:103310004C2E536372657700473120583020593363
:10332000302046353030300A204D383400312E47B9
:103330006F20746F2052656172204C2E536372654A
:10334000770047312058302059363030204635300C
:1033500030300A204D383400322E476F20746F20F1
:1033600046726F6E7420522E536372657700473138
:10337000205831323030205933302046353030300B
:103380000A204D383400312E476F20746F2052656B
:10339000617220522E536372657700473120583195
:1033A00032303020593630302046353030300A2027
:1033B0004D38340053617665205A204F6666736538
:1033C0007400352E5072696E742054657374204CED
:1033D000696E65004739322045300A204731205850
:1033E0003230302045333520463530300A204731E1
:1033F000204632343030204533340A2047393220D9
:10340000452D310A2047323820582059004865613F
:1034100074696E672C20506C6561736520776169F3
:10342000742100342E566572696679204865696793
:10343000687400473238205A0A204731205830201B
:103440005932302046353030300A204731205A304A
:103450002E3200332E486F6D6520582026205900EB
:103460004732382058205900322E536574205A2094
:103470004F666673657400312E5365742054656D14
:1034800065726174757265004261636B003F005341
:1034900074617274205072696E740043616E63656A
:1034A0006C005072696E740043616E6E6F742065BB
:1034B0006E746572207375626469723A200002202E
:1034C0002E2E004D61696E004D6F766520246D6D66
:1034D00000302E303235004D6F766520302E316D44
:1034E0006D004D6F766520316D6D004D6F766520F6
:1034F00031306D6D004D6F7665203130306D6D006F
:103500004D6F7665202A004D6F76652040004F662E
:1035100066004F6E00536F667420456E6473746F5F
:103520007073004261636B0044697361626C652073
:103530005374657070657273004D383400473238CB
:103540005A004732385900486F6D652040004732B5
:103550003858004175746F20486F6D65004D6F7667
:10356000652041786973004D61696E00507265682D
:10357000656174202420416C6C005072656865613F
:10358000742024207E0054656D70657261747572BC
:103590006500000C0F00FE07022503BB017FFE083B
:1035A000FE08FE05080806000040F0C888889878E4
:1035B00010050808060000C0F88888888888F80583
:1035C00005050600012030F8302005080806000037
:1035D0002070F820202020E00509090600FF207057
:1035E000A8A8B888887020070505070001D86C36A0
:1035F0006CD80509090600FFF8A88888888888A87B
:10360000F8050A0A0600FE205050505088A8A888E5
:103610007003030306000340A040FFFFFFFFFFFF0E
:10362000FFFFFFFFFFFFFFFFFFFFFFFFFFFFFFFFAA
:103630000000000605FF0107070602008080808069
:10364000800080030303060105A0A0A0050606066E
:10365000000050F85050F8500509090600FF20708E
:10366000A8A07028A87020050707060000C8C81089
:103670002040989805070706000040A0A040A890A9
:10368000680103030602058080800309090601FF23
:103690002040408080804040200309090601FF80CF
:1036A000404020202040408005070706000020A859
:1036B000702070A8200505050600012020F82020B4
:1036C0000203030601FFC04080050101060003F864
:1036D000020202060100C0C005070706000008102C
:1036E0001020404080050707060000708898A8C891
:1036F000887003070706010040C040404040E005D5
:103700000707060000708808102040F80507070624
:103710000000F80810300888700507070600001040
:10372000305090F81010050707060000F880F008E8
:10373000088870050707060000304080F088887010
:10374000050707060000F8081010202020050707CD
:1037500006000070888870888870050707060000DA
:1037600070888878081060020505060100C0C00056
:10377000C0C00206060601FFC0C000C040800305AD
:10378000050601012040804020050303060002F8E1
:1037900000F8030505060101804020408005070769
:1037A0000600007088102020002005070706000092
:1037B0007088B8A8B8807005070706000070888870
:1037C000F8888888050707060000F04848704848D0
:1037D000F005070706000070888080808870050764
:1037E00007060000F04848484848F005070706006B
:1037F00000F88080F08080F8050707060000F88058
:1038000080F080808005070706000070888080981F
:103810008870050707060000888888F8888888036C
:103820000707060100E04040404040E0050707066A
:10383000000038101010109060050707060000887F
:1038400090A0C0A0908805070706000080808080B7
:103850008080F805070706000088D8A8888888882F
:103860000507070600008888C8A898888805070704
:1038700006000070888888888870050707060000A1
:10388000F08888F08080800507070600007088882F
:1038900088A89068050707060000F08888F0A090C7
:1038A0008805070706000070888070088870050783
:1038B00007060000F820202020202005070706002A
:1038C000008888888888887005070706000088882F
:1038D000888850502005070706000088888888A837
:1038E000A8500507070600008888502050888805E2
:1038F00007070600008888502020202005070706BB
:103900000000F80810204080F80309090601FFE0D4
:1039100080808080808080E005070706000080406E
:1039200040201010080309090601FFE02020202094
:10393000202020E005030306000520508805010132
:103940000600FEF803030306010580402005050577
:103950000600007008788878050707060000808058
:10396000F0888888F0050505060000708080887062
:103970000507070600000808788888887805050587
:103980000600007088F080700507070600003048C8
:1039900040E04040400507070600FE7088888878B0
:1039A00008700507070600008080F0888888880373
:1039B00007070601004000C0404040E00409090636
:1039C00001FE10003010101010906005070706006F
:1039D0000080808890E09088030707060100C040BF
:1039E00040404040E0050505060000D0A8A8A8A872
:1039F000050505060000B0C888888805050506008D
:103A00000070888888700507070600FEF08888889F
:103A1000F080800507070600FE7888888878080807
:103A2000050505060000B0C8808080050505060074
:103A30000078807008F00507070600002020F820B5
:103A40002020180505050600008888889868050567
:103A500005060000888888502005050506000088B6
:103A600088A8A85005050506000088502050880544
:103A700007070600FE888888502040800505050657
:103A80000000F8102040F80309090601FF2040401B
:103A90004080404040200109090602FF808080806C
:103AA00080808080800309090601FF80404040201B
:103AB0004040408005030306000248A890FF7C3C7C
:103AC0003E5E2B3D3F2F5B5D3B2C2A225C004D650B
:103AD00064696120496E6974204661696C005344D1
:103AE0002063617264206F6B0A006F70656E526FA5
:103AF0006F74206661696C65640A00766F6C756D21
:103B0000652E696E6974206661696C65640A004E91
:103B10006F20534420636172640A00534420636140
:103B200072642072656C65617365640A000A4D32C7
:103B300034004D3233202573002E0A006F70656EFD
:103B4000206661696C65642C2046696C653A2000CA
:103B500046696C652073656C65637465640A002052
:103B600053697A653A200046696C65206F70656E0E
:103B700065643A2000454E4420535542524F5554F7
:103B8000494E450A002220706F7300222070617236
:103B9000656E743A2200535542524F5554494E4572
:103BA0002043414C4C207461726765743A22005383
:103BB000756263616C6C204F766572666C6F77001E
:103BC0004578636565646564206D6178205355426E
:103BD000524F5554494E452064657074683A002E22
:103BE0000A0044656C6574696F6E206661696C6576
:103BF000642C2046696C653A200046696C65206437
:103C0000656C657465643A0057726974696E672003
:103C1000746F2066696C653A20006672657368008F
:103C2000646F696E67002066696C653A20004E6FAC
:103C30007720002F6175746F25632E6700FFFFFFEB
:103C4000FFFFFFFFFFFFFFFFFFFFFFFFFFFFFFFF84
:103C5000FFFFFFFF87FFFFFFFFFFFFFFFFFFFF33B8
:103C6000FFFFFFFFFFFFFFFFFFFF79FFFFFFFFFFEA
:103C7000FFFFFFFFFF3CFFFFFFFFFFFFFFFFFFFF17
:103C8000BEFFFFFFFFFFFFFFFFFFFF9E7FFFFFFF66
:103C9000FFFFFFFFFFFFDF3FFFFFFFFFFFFFFFFF14
:103CA000FFCFBFFFFFFFFFFFFC3FFFFFEF9FFFFFC7
:103CB000FFFFFFF99FFFFFE7CFFFFFFFFFFF83D865
:103CC000FFFFF7E7FFFFFFFFFF3BD27FFFF3F7FFA9
:103CD000FFFFFFFF7A473FFFFBF3FFFFFFFFFC7A89
:103CE0004F9FFFF9F9FFFFFFFFF979CFDFFFFDFDE0
:103CF000FFFFFFFFF37D8FDFFFF9FC07FFFFFFE70B
:103D0000642FDFFFE3E0F1FFFFFF8F25E7DFFFCF49
:103D10000FF87FFFFF3FBDF79FFFDC7FE33FFFFE14
:103D20007F99F31FFFC9FFEF9FFFF8FFC3F84FFF15
:103D3000E3FFEFDFFFE3FFFFFFEFFFEFFFCFCFFF7B
:103D4000C7FFFFFFEFFFCFFFDFEFFF1FFFFFFFEF1B
:103D5000FFDFFFDFEFFE7FFFFFFFEFFFDFFFDFEFA4
:103D6000F8FFFFFFFFCFFFDFFFDFCFE3FFFFFFFF26
:103D7000DFFFDFFFCFDF8FFFFFFEFEDFFFCFFFEFB5
:103D8000DE3FFFFFFE389FFFEFFFE798FFFFFFFEDC
:103D900092BFFFE7FFF183FFFFFFFEC4BFFFF3FF0A
:103DA000FC3FFFFFFFFE7D3FE039FFC1FFFFFFFF4C
:103DB000FF397FE38C000FFFFFFFFFFF927FF8E0EA
:103DC00007FFFFFFFFFFFFC6FFFE3FE07FFFFFFF94
:103DD000FFFFFCFFFF83FF3FFFFFFFFFFFFDFFFF34
:103DE000F87F3FFFFFFFFFFFF9FFFFFF00700000BC
:103DF0000003FFF3FFFFE1E7F7FFFFE3F3FFE7FF58
:103E0000FFCD13F3FFFFC9E7FFCFFFFFDD5BF8FF37
:103E1000FF1CCFFF9FFFFE1801FE1FFC7E1FFF1F30
:103E2000FFFEC3FCFFC1F9C00FFE4FFFFEFFE07FA6
:103E3000FC331F87FCEFFFFE000F3FFF847F33F949
:103E4000EFFFFFFFFF9FFFF1FE79E3EFFFFFFFFFB3
:103E5000CFFFE7FCFDCBCFFFFFFFFFE3FFCFFDFC74
:103E60009BDFFFFFFFFFF9FFDFF9FE399FFFFFFF39
:103E7000FFFC7F9FFBFEFC3FFFFFFFFFFF1FBFFB21
:103E8000FE00FFFFFFFFFFFFC1BFFBFEFFFFFFFFC5
:103E9000FFFFFFFC3FF9FEFFFFFFFFFFFFFFFFBF3C
:103EA000FDFCFFFFFFFFFFFFFFFF9FFCFDFFFFFF8C
:103EB000FFFFFFFFFFCFFE79FFFFFFFFFFFFFFFFC9
:103EC000E7FF33FFFFFFFFFFFFFFFFF1FF87FFFF6C
:103ED000FFFFFFFFFFFFFC3E1FFFFFFFFFFFFFFF96
:103EE000FFFF80FFFFFFFFFFFFFFFFFFFFFFFFFF61
:103EF000FFFFFFFFFFFFFFFFFFFFFFFFFF6D61728F
:103F00006C696E66772E6F726700322E312E31002B
:103F10001FFFFFFFFFFFFF600000000001FF4000E8
:103F200000000000FF8000000000007F83CF000041
:103F30000C303F87FF80000C301F867980000C001A
:103F40000F8C30C7838C30E78C30CFC7CC31F38CEB
:103F500030DCECEC33B98C30D86C6C33198C30D04D
:103F60006C0C33198C30D86C0C33198C30DC6C0E23
:103F70003B198C30CF7C079F198C30C77C038F197D
:103F800040000000000002600000000000061FFF6B
:103F9000FFFFFFFFF81000C90210012C01400122B1
:103FA0000170011801B0010E01F00104015002FA84
:103FB00000B002F0003003E600D003DC009004D231
:103FC000007005C800A006BE000008B400B009AA31
:103FD00000D00BA000600E960060118C00001582CE
:103FE0000020197800C01D6E00A0226400B0275A7E
:103FF00000902C500000314600E0343C0010383274
:1040000000903A2800603C1E00A03D1400803E0A4B
:1040100000203F00002020506C616E6E657242757A
:104020006666657242797465733A2000204672654F
:1040300065204D656D6F72793A200020436F6D7079
:10404000696C65643A204A616E2020362032303235
:10405000330A00204C617374205570646174656488
:104060003A20323032322D30382D3036207C20410B
:104070007574686F723A202857696C6C6965290AF3
:10408000004D61726C696E20322E312E310A002093
:10409000536F6674776172652052657365740A00A8
:1040A000205761746368646F672052657365740A92
:1040B000002042726F776E206F75742052657365B1
:1040C000740A002045787465726E616C20526573C5
:1040D00065740A00506F77657255700A00737461D9
:1040E00072740A004732385859004D31303031006F
:1040F0006F6B006572726F722077726974696E6798
:1041000020746F2066696C650A00446F6E652073C9
:104110006176696E672066696C652E0A004D3239DA
:1041200000456E6473746F707300255320256320FF
:10413000256320256320256300205A3A0020593A40
:104140000020583A00656E6473746F70732068695C
:10415000743A200000000A0B02090C0D0E08070338
:10416000040100000000000000000000000000004A
:10417000000000000000000000000000000000003F
:1041800012111000000000000000000000000000FC
:104190000000000000000000000024F404D9201BEF
:1041A000C40C5C0E9804C4095F0265077101F40534
:1041B000F900FB04B30048048700C10369005803F9
:1041C000550003034500BE023A0084023100530249
:1041D0002A002902250004022000E4011C00C80175
:1041E0001900AF0117009801140084011300710138
:1041F00010006101100051010E0043010D00360155
:104200000B002B010B0020010B00150109000C0114
:10421000090003010800FB000800F3000800EB00A0
:104220000700E4000600DE000600D8000600D20009
:104230000600CC000500C7000500C2000500BD0057
:104240000400B9000400B5000400B1000400AD0092
:104250000400A9000400A5000300A20003009F00C1
:1042600004009B00030098000300950002009300E7
:104270000300900003008D0002008B000300880003
:1042800002008600020084000300810002007F001B
:1042900002007D0002007B0002007900020077002E
:1042A000010076000200740002007200010071003B
:1042B00002006F0002006D0001006C0002006A0045
:1042C000010069000200670001006600010065004E
:1042D0000100640002006200010061000100600052
:1042E00001005F0002005D0001005C0001005B0056
:1042F00001005A0001005900010058000100570058
:104300000100560001005500010054000100530057
:104310000000530001005200010051000100500054
:1043200001004F0001004E0000004E0001004D0052
:1043300001004C0001004B0000004B0001004A004E
:10434000010049000100480000004800010047004A
:104350000100460000004600010045000000450045
:10436000010044000100430000004300010042003E
:104370000000420001004100000041000100400037
:1043800001003F0000003F0001003E0000003E0031
:1043900001003D0000003D0001003C0000003C0029
:1043A00000003C0001003B0000003B0001003A001F
:1043B00000003A0001003900000039000100380017
:1043C000000038000000380001003700000037000E
:1043D0000100360000003600000036000100350004
:1043E00000003500000035000100340000003400FA
:1043F00000003400010033000000330000003300EF
:1044000001003200000032000000320001003100E3
:1044100000003100000031000100300000003000D9
:104420000000300001002F0000002F0000002F00CE
:1044300000002F0001002E0000002E0000002E00C2
:1044400001002D0000002D0000002D0000002D00B7
:1044500001002C0000002C0000002C0000002C00AB
:1044600001002B0000002B0000002B0000002B009F
:1044700001002A0000002A0000002A0000002A0093
:104480000100290000002900000029000000290087
:10449000000029000100280000002800000028007A
:1044A000000028000000280001002700000027006D
:1044B0000000270000002700000027000100260060
:1044C0000000260000002600000026000000260054
:1044D0000100250000002500000025000000250047
:1044E0000000250000002500010024000000240039
:1044F000000024000000240000002400010023002C
:10450000000023000000230000002300000023001F
:104510000000230000002300010022000000220010
:104520000000220000002200000022000000220003
:1045300001002100000021000000210000002100F6
:1045400000002100000021000000210001002000E7
:1045500000002000000020000000200000002000DB
:1045600000002000000020000000200001001F00CB
:1045700000001F0000001F0000001F0000001F00BF
:1045800000001F0000001F0001001E0000001E00B0
:1045900000001E0000001E00000024F4D43050C3B0
:1045A0008E20C2A24017828B7011127A910D816CFD
:1045B000D90AA861E108C7586607615143061E4B36
:1045C0005D05C145A7041A411104093D98037139DD
:1045D00031034036DB0265339102D4305402802E21
:1045E0001D02632CEE01752AC501B028A001102719
:1045F00081018F2564012B244B01E0223401AC2181
:104600001F018D200D01801FFC00841EED00971DF1
:10461000DF00B81CD200E61BC600201BBC00641AD9
:10462000B200B219A8000A19A0006A189900D1179F
:10463000910040178B00B516840031167E00B3152B
:1046400079003A157300C7146F0058146A00EE130E
:1046500066008813630025135E00C7125B006C12AE
:10466000570015125400C111510070114F00211153
:104670004B00D61049008D10470046104400021030
:104680004200C00F4000800F3E00420F3C00060F6A
:104690003B00CB0E3800930E37005C0E3500270E22
:1046A0003400F30D3200C10D3100900D3000600D6B
:1046B0002E00320D2D00050D2C00D90C2B00AE0C58
:1046C0002900850C29005C0C2700350C27000E0CF6
:1046D0002600E80B2400C40B2400A00B23007D0B54
:1046E00023005A0B2100390B2100180B2000F80A77
:1046F0001F00D90A1E00BB0A1E009D0A1D00800A69
:104700001D00630A1C00470A1B002C0A1B00110A2B
:104710001A00F7091A00DD091900C4091900AB09CC
:104720001900920917007B091800630917004C094A
:10473000160036091600200916000A091500F508AA
:104740001500E0081400CC081400B8081400A408F0
:104750001400900813007D0812006B08130058081D
:104760001200460812003408110023081100120834
:10477000110001081100F0071000E0071000D00739
:104780001000C0071000B0070F00A107100091072C
:104790000E0083070F0074070F0065070E00570710
:1047A0000E0049070E003B070D002E070E002007E4
:1047B0000D0013070D0006070D00F9060C00ED06AD
:1047C0000D00E0060C00D4060C00C8060C00BC0668
:1047D0000C00B0060C00A4060B0099060C008D0618
:1047E0000B0082060B0077060B006C060B006106BF
:1047F0000A0057060B004C060A0042060A0038065B
:104800000A002E060A0024060A001A060A001006EC
:10481000090007060A00FD050900F4050900EB057B
:104820000900E2050900D9050900D0050900C705FE
:104830000900BE050900B5050800AD050800A5057D
:1048400009009C050800940508008C0508008405F3
:1048500008007C050800740508006C050700650564
:1048600008005D050700560508004E0507004705CE
:1048700007004005080038050700310507002A0534
:104880000700230507001C050600160507000F0595
:1048900007000805060002050700FB040600F504F2
:1048A0000700EE040600E8040600E2040700DB044B
:1048B0000600D5040600CF040600C9040600C304A0
:1048C0000600BD040600B7040600B1040500AC04F0
:1048D0000600A6040600A00405009B04060095043B
:1048E0000500900406008A04050085040500800484
:1048F00006007A04050075040500700405006B04C9
:10490000050066040500610405005C040500570409
:104910000500520405004D04050048040500430449
:1049200005003E0404003A04050035040500300487
:1049300004002C04050027040400230405001E04C1
:1049400004001A04040016040500110404000D04F8
:104950000400090405000404040000040400FC032E
:104960000400F8030400F4030400F0030400EC0363
:104970000400E8030400E4030400E0030400DC0393
:104980000400D8030400D4030400D0030400CC03C3
:104990000400C8030300C5030300043700001E29F8
:1049A0000000511B00005810000010090000CC044A
:1049B00000007802000041010000486F6D696E67D9
:1049C000204661696C656400FF01FF43616E6E6F94
:1049D00074206F70656E20737562646972200022A6
:1049E0000A00556E6B6E6F776E20636F6D6D616E32
:1049F000643A202200204500205A0020590020203F
:104A00004D393220580053746570732070657220E0
:104A1000756E69740000002200250028002B002E0E
:104A2000003100340002010000050108010B010003
:104A3000002100240027002A002D0030003300014F
:104A4000010000040107010A010505050507050825
:104A5000080808020202020A0A0808040404040101
:104A60000101010101010103030303030303030423
:104A70000707070C0C0C0C0C0C0C0C0202020206B3
:104A8000060606060606060B0B0B0B0B0B0B0B01A3
:104A9000021020200808102040102040800201024F
:104AA0000108040201010204081020408080402017
:104AB0001008040201800402018040201008040252
:104AC00001080402010102040810204080010204D0
:104AD0000810204080486F6D65202573257325736D
:104AE0002046697273740020453A00205A3A00202B
:104AF000593A00583A006F6B0A00526573656E644C
:104B00003A20000091011B0111241FBECFEFD1E21A
:104B1000DEBFCDBF00E00CBF84B78093BA1D14BECA
:104B20000FB6F894A895809160008861809360002A
:104B3000109260000FBE17E0A0E0B2E0EAE9F2E2F6
:104B400003E00BBF02C007900D92AC34B107D9F758
:104B50002DE1ACE4B7E001C01D92AA3BB207E1F73A
:104B600015E2C3E8D5E200E006C021970109802FD5
:104B7000FE010F94BE8CC238D10780E00807A9F768
:104B80000F9484780D943C910C9400002091B4070C
:104B9000833021F425FD0CC024FD0CC030E0A901B8
:104BA00002C0559547958A95E2F7CA01817008952C
:104BB00081E0089580E008958091640C84FD0BC02D
:104BC0008091660C87FD07C09091670C937081E01F
:104BD00019F480E0089581E0089585E99CE2089544
:104BE0008BE596E5089550E0440F551F840F951FFF
:104BF00021E030E002C0220F331F6A95E2F7FC018A
:104C0000808191812823392381E0232B09F480E0DE
:104C10000895FC0120812617170611F00CF060831F
:104C20000895DB011196EC911197F0E0EE0FFF1F54
:104C3000E80FF91F2C9181E090E0AC0102C0440F15
:104C4000551F2A95E2F79A0180819181842B932B3D
:104C5000918380830895DC01ED91FC911197129668
:104C60008C9180830895FC0171836083FB01208116
:104C7000FC012283FB01408308954F925F926F9263
:104C80007F928F929F92AF92BF92CF92DF92EF92DC
:104C9000FF920F931F93CF93DF93C82F062F542EAD
:104CA000622EE62EF12C3AE0732EC82ED12CF7019D
:104CB000789EE00DF11D1124EE0FFF1FEE0FFF1F78
:104CC000E950F84F60817181828193819B01AC0131
:104CD0000F94AB90882309F47AC0C50D0C2E000CFC
:104CE000DD0B060D002E000C110B7C9EF0017D9E4D
:104CF000F00D1124E00FF11FEE0FFF1FEE0FFF1F4D
:104D0000E950F84F80809180A280B380A501940182
:104D1000C501B4010F94AB90811159C0C50DD11DCF
:104D200057FCDA957C9EF0017D9EF00D1124060D56
:104D3000111D67FC1A95E00FF11FEE0FFF1FEE0F1C
:104D4000FF1FE950F84F4080518062807380A301BB
:104D50009201C301B2010F94AB90811138C0A3013D
:104D60009201C501B4010F94F78587FD0CC0A50120
:104D70009401C501B4010F94C78CA30192010F9453
:104D8000C68C4B015C018AE08C9DF0018D9DF00D7D
:104D90001124EE0DFF1DEE0FFF1FEE0FFF1FE95058
:104DA000F84F80829182A282B38281E0DF91CF911D
:104DB0001F910F91FF90EF90DF90CF90BF90AF9039
:104DC0009F908F907F906F905F904F90089580E0BC
:104DD000EDCF8F929F92AF92BF92CF92DF92EF92E0
:104DE000FF920F931F93CF93DF9380EAE82E80E129
:104DF000F82E98EAC92E90E1D92EF7018591949169
:104E0000FC01A4903296B4903197C49132960491EB
:104E10000496FC0184918823F1F088248A94AC16CE
:104E200014F488248394002E000C110B0C2E000C1B
:104E3000DD0BB016110669F19A2C9C161D0649F07F
:104E400020E0482D6B2D892D18DF811102C0980CB0
:104E5000F4CFB394EECF88248A94B01614F4882447
:104E600083940C2E000CDD0B002E000C110BAC16E5
:104E70001D0679F09B2C9016110649F0282D40E074
:104E8000692D8A2DFADE811102C0980CF4CFA3940B
:104E9000EECFF2E0EF0EF11CCE14DF0409F0ADCF3F
:104EA000DF91CF911F910F91FF90EF90DF90CF9006
:104EB000BF90AF909F908F9008954F925F926F92A6
:104EC0007F928F929F92AF92BF92CF92DF92EF929A
:104ED000FF920F931F93CF93DF9340906C075090F6
:104EE0006D0760906E0770906F0707EF17E0CFE0D7
:104EF0007801DAE0F70181909190A190B1907F0163
:104F0000A5019401C501B4010F94AB9081110FC0AC
:104F10006701F4E0CF1AD108A5019401C301B201E1
:104F20000F94C78CF6016083718382839383D15081
:104F300009F7C150085D1F4FC111DACFDF91CF9142
:104F40001F910F91FF90EF90DF90CF90BF90AF90A7
:104F50009F908F907F906F905F904F9008958F9269
:104F60009F92AF92BF92CF92DF92EF92FF920F93F8
:104F70001F93CF93DF93EC017B018A016901FB0151
:104F80002081318142815381688179818A819B812D
:104F90000F94C78C688379838A839B83F80120816F
:104FA0003181428153816C817D818E819F810F94FB
:104FB000C78C6C837D838E839F83F6012081318132
:104FC00042815381688579858A859B850F94C78C3A
:104FD000688779878A879B87F701608171818281E1
:104FE00093819B01AC010F945C869B01AC016C85A5
:104FF0007D858E859F850F94C78C6C877D878E8776
:105000009F87F80160817181828193819B01AC014E
:105010000F945C869B01AC01688979898A899B8998
:105020000F94C78C688B798B8A8B9B8BF8012081BE
:10503000318142815381F701608171818281938145
:105040000F945C869B01AC016C897D898E899F8958
:105050000F94C78C6C8B7D8B8E8B9F8BF601208180
:10506000318142815381F701608171818281938115
:105070000F945C869B01AC01688D798D8A8D9B8D28
:105080000F94C78C688F798F8A8F9B8FF601208150
:10509000318142815381F8016081718182819381E4
:1050A0000F945C869B01AC016C8D7D8D8E8D9F8DE8
:1050B0000F94C78C6C8F7D8F8E8F9F8F88A099A047
:1050C000AAA0BBA0F701C080D180E280F38020E0DD
:1050D00030E0A901C701B6010F941F8F87FF04C0FC
:1050E000F7FAF094F7F8F094A7019601B401C5011E
:1050F0000F94F78587FD02C064017501C8A2D9A28B
:10510000EAA2FBA28CA09DA0AEA0BFA0F801C08027
:10511000D180E280F38020E030E0A901C701B60130
:105120000F941F8F87FF04C0F7FAF094F7F8F094FC
:10513000A7019601B401C5010F94F78587FD02C050
:1051400064017501CCA2DDA2EEA2FFA220E030E056
:1051500040E85FE36CA97DA98EA99FA90F94C78C35
:105160006CAB7DAB8EAB9FABDF91CF911F910F915D
:10517000FF90EF90DF90CF90BF90AF909F908F9077
:105180000895CF92DF92EF92FF926B017C0120E0B5
:1051900030E0A9010F941F8F87FF04C0F7FAF09445
:1051A000F7F8F094C701B601FF90EF90DF90CF9031
:1051B00008952FEB280F2A3108F047C0E22FF0E0C6
:1051C0008091640C9091650CA091660CB091670C75
:1051D00004C0B695A795979587952A95D2F780FD37
:1051E00002C081700895EC5BF34FE081EE2341F142
:1051F0008091850F9091860FE80FF92FF11D808126
:1052000090ED980F9A3030F08E3251F481818053B6
:105210008A3098F4F093AE07E093AD0781E00895EB
:105220008D3211F08B3249F4818190ED980F9A30D4
:1052300088F38E3211F48281EACFF0E0E0E0EACF29
:105240001092AE071092AD07E9CF80E00895CF929B
:10525000DF92EF92FF92E0911919F0911A1920E074
:1052600030E848E154E464817581868197810F9428
:10527000C78C6B017C0120E030E848E154E40F94D6
:105280001F8F18163CF4C12C80E8D82E88E1E82E38
:1052900084E4F82EC701B601FF90EF90DF90CF9025
:1052A0000895CF92DF92EF92FF92E0911919F09159
:1052B0001A1920E030E0A901648175818681978107
:1052C0000F94C78C6B017C0120E030E0A9010F94A2
:1052D000F78587FF03C0C12CD12C7601C701B60129
:1052E000FF90EF90DF90CF900895CF92DF92EF92F2
:1052F000FF92E0911919F0911A1920E030E046E987
:1053000054E460817181828193810F94C78C6B0119
:105310007C0120E030E046E954E40F941F8F18161A
:1053200034F4C12CD12C86E9E82E84E4F82EC70190
:10533000B601FF90EF90DF90CF900895CF92DF926B
:10534000EF92FF92E0911919F0911A1920E030E0E4
:10535000A90160817181828193810F94C78C6B0157
:105360007C0120E030E0A9010F94F78587FF03C09E
:10537000C12CD12C7601C701B601FF90EF90DF90D0
:10538000CF9008951092A8180895FC01208127FD60
:1053900006C081818095881F8827881F089580E036
:1053A00008952FEFFC01208321830895ECEDF5E1B2
:1053B000808181830895FC014083518362837383DC
:1053C0000895CF92DF92EF92FF92DC0147EF57E012
:1053D0009FE030E020E0CD90DD90ED90FC901397C1
:1053E000F901EE0FFF1FEE0FFF1FE40FF51FC08244
:1053F000D182E282F3822F5F3F4F2A30310559F785
:105400009150485D5F4F9111E4CFFF90EF90DF9096
:10541000CF9008959091600780936007892F089539
:105420000F931F93CF938C0120E030E040E85FE3BF
:10543000FC0160817181828193810F94C68C22E985
:1054400034E24BE252E40F94C78C2DE337E74FE38D
:105450005CE30F945C860F943C8EC62F6F3008F08F
:10546000CFEF20E030E040E85FE3F8016481758130
:10547000868197810F94C68C22E73CE147E052E495
:105480000F94C78C2CEB36E842E75CE30F945C8604
:105490000F943C8E962F6A3008F09FEF8C2FCF919F
:1054A0001F910F91089580917A0E882321F08091A9
:1054B000C00086FFFCCF0895EF92FF921F93CF9319
:1054C000DF9397EFE92E97E0F92E1FE0D0E0C0E0E0
:1054D000FE01EE0FFF1FEE0FFF1FEE0DFF1D60819F
:1054E0007181828193819B01AC010F94AB908111FA
:1054F00011C02196CA30D10559F7115088E2E80E43
:10550000F11C1111E3CF81E0DF91CF911F91FF904A
:10551000EF90089580E0F8CF10926F0C80913002E8
:1055200090913102A0913202B09133028093870AA8
:105530009093880AA093890AB0938A0A08958111EA
:1055400004C08CE69BE00D94944382E89FE1FBCF7E
:10555000CF92DF92EF92FF920F931F93CF93909190
:105560006902913009F461C0662351F010927F07FF
:1055700010927B0710927C0710927D0710927E0795
:10558000C82F0F94485EC0907B07D0907C07E090B6
:105590007D07F0907E079B01AC012C193D094E0957
:1055A0005F0969017A01F7FC40C020917F07C7FDC0
:1055B00015C04C2F0C2E000C550B4C5F5F4FE22F8B
:1055C000022E000CFF0B4E175F077CF144EFC42E38
:1055D000DD24D394E12CF12C2C1734F438EEC32EB7
:1055E00033E0D32EE12CF12CC60ED71EE81EF91E97
:1055F000C0927B07D0927C07E0927D07F0927E07F5
:10560000022F017010E084E2809FB001819F700D35
:10561000701B112460597C4F82E390E00E94C6F019
:1056200080917F078F5F80937F07CF911F910F91AC
:10563000FF90EF90DF90CF9008952F923F924F927E
:105640005F926F927F928F929F92AF92BF92CF9212
:10565000DF92EF92FF921F93CF93DF93CDB7DEB728
:105660002C970FB6F894DEBF0FBECDBF7A0119019B
:10567000DC012D913D914D915C912D833E834F83B3
:105680005887FB0140805180628073808090920235
:1056900090909302A0909402B0909502A50194017D
:1056A0006D817E818F8198850F94F78581110EC061
:1056B00011E0A3019201609196027091970280918E
:1056C0009802909199020F94F785811110E0D10111
:1056D0002D913D914D915C9129873A874B875C874D
:1056E000F701C080D180E280F380209102023091E6
:1056F00003024091040250910502C701B6010F94C4
:10570000F785882309F44EC0C0920202D0920302AA
:10571000E0920402F092050280919E0290919F0215
:10572000A091A002B091A1024091960250919702DF
:1057300060919802709199028092630F9092640F29
:10574000A092650FB092660F4093670F5093680F59
:105750006093690F70936A0FC0926B0FD0926C0FB9
:10576000E0926D0FF0926E0F80936F0F9093700F19
:10577000A093710FB093720F20E030E040E05FE340
:105780006091B30F7091B40F8091B50F9091B60FE7
:105790000F945C8669837A838B839C83CE01019608
:1057A0000E9463D42D813E814F8158852093630FE1
:1057B0003093640F4093650F5093660F4092670FCC
:1057C0005092680F6092690F70926A0FD1012D910B
:1057D0003D914D915C9160916F0F7091700F809130
:1057E000710F9091720F0F94C78C60936F0F70932D
:1057F000700F8093710F9093720F11112FC020E0E2
:1058000030E0A90169857A858B859C850F94F785A1
:10581000811133C060E070E088EC92E469837A83A0
:105820008B839C83CE0101960E9463D42C960FB685
:10583000F894DEBF0FBECDBFDF91CF911F91FF90D7
:10584000EF90DF90CF90BF90AF909F908F907F9020
:105850006F905F904F903F902F9008952AEF3EE712
:105860004AE25FE36091B70F7091B80F8091B90F72
:105870009091BA0F0F945C86D1CF60E070E080EA1F
:1058800091E4CCCFCF93DF9300D01F92CDB7DEB79A
:1058900080E090E0A0E2B1E489839A83AB83BC838B
:1058A00061E0CE0101960E94A8D30F900F900F9057
:1058B0000F90DF91CF9108958091AD079091AE0741
:1058C000009731F04AE050E070E060E00D94DC8336
:1058D00060E070E0CB01089560E00F94981381E0E0
:1058E0000D94F717CF93DF9300D000D0CDB7DEB77C
:1058F0009E838D830F94FD0780E090E0A0E2B1E4E9
:1059000089839A83AB83BC8360E0CE0101960E94B9
:10591000A8D388EC9EE0E0DF26960FB6F894DEBFB1
:105920000FBECDBFDF91CF91089590E080E0DACF38
:10593000CF92DF92EF92FF92CF936A017B01C22F49
:1059400081111DC02DEC3CEC4CE45DE36091940AA8
:105950007091950A8091960A9091970A0F94C78C3E
:105960009B01AC0160919A0270919B0280919C0214
:1059700090919D020F941F8F18160CF0CAC0809151
:105980008B0A8F5F09F4C3C080938B0A80918B0AC6
:1059900080933F0B20E030E040E752E460918E02BC
:1059A00070918F0280919002909191020F945C8689
:1059B0000F94418E70939D0A60939C0AC0929E0A38
:1059C000D0929F0AE092A00AF092A10A80913E0B29
:1059D000C0FB80F980933E0B8CE0E8EEFEE0A2EA8B
:1059E000BAE001900D928A95E1F78CE0E5ECF7E0E2
:1059F000AEEABAE001900D928A95E1F78091760FB8
:105A00008093BA0A80913E0B90916B0A90FB84F9C7
:105A10004091630A5091640A6091650A7091660A28
:105A20004093BB0A5093BC0A6093BD0A7093BE0AB0
:105A30004091670A5091680A6091690A70916A0AF8
:105A40004093BF0A5093C00A6093C10A7093C20A80
:105A500020918B0E30918C0E3093C40A2093C30A90
:105A60002091BA0E3091BB0E3093C60A2093C50A1E
:105A700090915E0B9093C70A90915F0B90FB83F916
:105A800080933E0B80914F0A9091500AA091510A49
:105A9000B091520A8093C80A9093C90AA093CA0A87
:105AA000B093CB0A0E948AE16093390B70933A0B52
:105AB00080933B0B90933C0B8091B40780933D0BFC
:105AC0009091F60780913E0B93FB81F99091B3077B
:105AD00090FB82F980933E0B80E00F94237540E0A9
