:100000000C941D250D9461530D9436530D940B5390
:100010000D94E0520D94B5520D948A520D945F5296
:100020000D9434520C9481D20C9481D20C9481D2D0
:100030000C945D250C945D250C945D250C945D2538
:100040000C945D250C9485A00C945D250C945D2585
:100050000C945D250C94EE9F0C945D250D94EA5153
:100060000C945D250C945C7E0C94527E0C945D2562
:100070000C945D250C945D250C945D250C945D25F8
:100080000C94FC440C945D250C945D250C945D252A
:100090000C945D250C945D250C945D250C945D25D8
:1000A0000C945D250C945D250C94CE440C945D2538
:1000B0000C945D250C945D250C945D250C945D25B8
:1000C0000C945D250C945D250C945D250C945D25A8
:1000D0000C945D250C945D250C945D250C945D2598
:1000E0000C945D25084AD73B3BCE016E84BCBFFD16
:1000F000C12F3D6C74319ABD56833DDA3D00C77FF8
:1001000011BED9E4BB4C3E916BAAAABE0000008090
:100110003F07634236B79BD8A71A39685618AEBA5C
:10012000AB558C1D3CB7CC5763BD6DEDFD753EF6F0
:10013000177231BF000000803F05A84CCDB2D44EED
:10014000B93836A9020C50B9918688083CA6AAAAEB
:100150002ABE000000803F08000000BE9224491221
:100160003EABAAAA2ABECDCCCC4C3E00000080BE3D
:10017000ABAAAAAA3E00000000BF000000803F001A
:1001800000000000084178D3BB4387D1133D190E0E
:100190003CC3BD4282AD2B3E68EC8276BED98FE176
:1001A000A93E4C80EFFFBE01C4FF7F3F000000006E
:1001B00000000D94E6310D9462220D94F0120D941E
:1001C00080010D94411D0D944B3F0D9443500D94AF
:1001D000054A0D94A2000D945A1D0D94B8490D9432
:1001E000D53F0D94E3490D94E7120D94663C0D94B0
:1001F000DF490D94B7040D94A62C0D94D6490D94A7
:10020000F7490D94DB120D94D93F0D94E4120D942F
:10021000D2490D94CE490D940C510D945F1D0D944F
:10022000BE3B0D94ED490D944F3F0D943E1E0D9431
:10023000094A0D94F1490D94CA490D944D3F0D940E
:10024000D2120D9444040D94903B0D94C9040D9466
:10025000D5120D94CC2A0D94D63F0D943F200D94C9
:10026000501D0D94AB0C0D9462230D94DE120D9471
:10027000BD3B0D941D0C0D94E2500D948F3B0D94DD
:10028000B3490D94533F0D94AA500D9475040D94E9
:10029000ED120D94461D0D944B1D0D94513F0D9480
:1002A000D8120D948D0C0D946F0C0D94B8240D94F0
:1002B000C2500D94C6270D94E1120D94D9490D94A6
:1002C000EA120D94E9490D94551D0D94B0020D9458
:1002D000FB490D94371D0D94FF490D941A660D943A
:1002E000CA510D943C1D0D941B260D94B0040D9421
:1002F000016F4E414E494E495459494E46CDCCCCE2
:100300003D0AD7233C17B7D13877CC2B329595E6E9
:10031000241FB14F0A000020410000C84200401CC9
:100320004620BCBE4CCA1B0E5AAEC59D7400407A16
:1003300010F35A00A0724E18090010A5D4E800006E
:10034000E87648170000E40B54020000CA9A3B000C
:100350000000E1F505000080969800000040420F83
:10036000000000A08601000000102700000000E847
:1003700003000000006400000000000A000000000C
:10038000000100000000002C76D888DC674F0823AD
:10039000DFC1DFAE59E1B1B796E5E3E453C63AE613
:1003A00051997696E8E6C28426EB898C9B62ED40F3
:1003B0007C6FFCEFBC9C9F40F2BAA56FA5F4900542
:1003C0005A2AF75C936B6CF9676DC11BFCE0E40D76
:1003D00047FEF520E6B500D0ED902E03009435776A
:1003E000050080841E080000204E0A000000C80C92
:1003F000333333330F986E12831141EF8D211489FB
:100400003BE65516CFFEE6DB18D1844B381BF77C54
:100410001D901DA4BBE424203284725E228100C999
:10042000F124ECA1E53D272904363726033C3D386D
:100430000E0F2E303E121A1C1824221E0A430745A6
:100440000900011000C90210012C014001220170B5
:10045000011801B0010E01F00104015002FA00B0D0
:1004600002F0003003E600D003DC009004D20070FC
:1004700005C800A006BE000008B400B009AA00D05C
:100480000BA000600E960060118C00001582002009
:10049000197800C01D6E00A0226400B0275A009099
:1004A0002C500000314600E0343C001038320090FF
:1004B0003A2800603C1E00A03D1400803E0A002047
:1004C0003F0000726F746174696F6E206D617472A9
:1004D00069783A0A001000C90210012C014001227B
:1004E0000170011801B0010E01F00104015002FA7F
:1004F00000B002F0003003E600D003DC009004D22C
:10050000007005C800A006BE000008B400B009AA2B
:1005100000D00BA000600E960060118C00001582C8
:100520000020197800C01D6E00A0226400B0275A78
:1005300000902C500000314600E0343C001038326E
:1005400000903A2800603C1E00A03D1400803E0A46
:1005500000203F00005A5F6D6F76655F636F6D70BE
:100560000A00616C736F20656E61626C6564290AB4
:1005700000206E6F742064697361626C65642E2064
:100580005368617265642077697468002E0A000000
:10059000473238580047323859004732385A004DF0
:1005A00038340047323950345254004732395034CD
:1005B00054004732380A47323643504825690047CD
:1005C00032380A47323620432053302E3420483206
:1005D0003035204C302E32004732380A4732362030
:1005E000432053302E362048323130204C302E33C9
:1005F000004732380A47323620432053302E382005
:1006000048323130204C302E34004732380A4732DD
:100610003620432053312E302048323135204C30A3
:100620002E35004732380A47323620432053302EC9
:10063000342048323430204C302E32004732380AD1
:1006400047323620432053302E3620483234302073
:100650004C302E33004732380A473236204320537D
:10066000302E382048323435204C302E340047327A
:10067000380A47323620432053312E302048323555
:1006800030204C302E35004732394A32004732395B
:1006900050335430004732395032425430004D65A7
:1006A000736820696E76616C6964617465642E0A92
:1006B000004732380A4D31303949300A4732395013
:1006C000310A4D31303453300A4D3134305330001B
:1006D0004732380A4D31303949310A4732395031C1
:1006E0000A4D31303453300A4D31343053300047E5
:1006F0003239543000473239532D31004732394EA8
:100700005031004732395033543000473239503479
:100710005254004732394400473239410047323998
:100720005700417869732000206D696E3A00206D92
:1007300061783A00534C4F57000E00000A01000D3B
:10074000000A01000F090000000F000800434F4D90
:100750004D554E49434154494F4E0044525952550C
:100760004E004552524F525300494E464F004543AA
:10077000484F004572726F722077726974696E67B4
:1007800020746F20454550524F4D210A0053544F5D
:10079000505045442E20005072696E74657220736B
:1007A000746F707065642064756520746F20657265
:1007B000726F72732E2046697820746865206572A6
:1007C000726F7220616E6420757365204D393939FE
:1007D00020746F20726573746172742E20285465C2
:1007E0006D706572617475726520697320726573CE
:1007F00065742E2053657420697420616674657277
:100800002072657374617274696E67290A004E6F95
:1008100020436865636B73756D2077697468206C1D
:10082000696E65206E756D6265722C204C61737403
:10083000204C696E653A20004E6F20436865636BFB
:1008400073756D2077697468206C696E65206E75AC
:100850006D6265722C204C617374204C696E653A30
:100860002000636865636B73756D206D69736D61DE
:100870007463682C204C617374204C696E653A2057
:10088000004C696E65204E756D626572206973203B
:100890006E6F74204C617374204C696E65204E75C8
:1008A0006D6265722B312C204C617374204C696E23
:1008B000653A20004D3131300053657269616C201A
:1008C000737461747573206D69736D617463680A04
:1008D0000053442072656164206572726F720A0071
:1008E000746F6F206D75636820696E6163746976DB
:1008F000652074696D65202D2063757272656E7454
:1009000020636F6D6D616E643A20002121204B4998
:100910004C4C2063617573656420627920006275B8
:1009200073793A2070617573656420666F7220690F
:100930006E7075740A00627573793A207061757310
:10094000656420666F7220757365720A0062757344
:10095000793A2070726F63657373696E670A004D30
:10096000656469612052656D6F766564004D6564EC
:10097000696120496E736572746564004D3630306C
:1009800000506C6561736520526573657400505248
:10099000494E5445522048414C5445440025533A51
:1009A000202553004B494C4C45442E200050726981
:1009B0006E7465722068616C7465642E206B696C5E
:1009C0006C28292063616C6C6564210A00006563F2
:1009D000686F3A004572726F723A00204A00202018
:1009E0004D343231204900202047323920493939ED
:1009F000390A00556E696669656420426564204C59
:100A00006576656C696E67006163746976650A0076
:100A1000696E00002053797374656D2076312E3035
:100A20003120002020207C0A004E414E0020202E44
:100A300020202000207C0020666F7220004C434460
:100A40003A0A004353563A0A003A0A0A000A426533
:100A50006420546F706F677261706879205265709E
:100A60006F72740050726F62696E67204661696CC4
:100A700065640A0050726F62696E67204661696C36
:100A8000656400205A3A200020593A2000426564EB
:100A900020583A20004732384C3000446F6E652EA3
:100AA0000A003F496E76616C69642073746F7261ED
:100AB000676520736C6F742E0A3F55736520302074
:100AC000746F20003F454550524F4D2073746F7234
:100AD000616765206E6F7420617661696C61626C1C
:100AE000652E0A00446F6E652E0A003F496E7661DE
:100AF0006C69642073746F7261676520736C6F74C6
:100B00002E0A3F557365203020746F20003F454505
:100B100050524F4D2073746F72616765206E6F7411
:100B200020617661696C61626C652E0A004732391A
:100B30002050322066696E69736865642E0A005819
:100B400059206F757473696465207072696E746181
:100B5000626C65207261646975732E0A003F45728C
:100B6000726F7220696E20427573696E65737320AF
:100B700043617264206D6561737572656D656E7435
:100B80002E0A004D616E75616C6C792070726F6217
:100B9000696E6720756E726561636861626C65205D
:100BA000706F696E74732E0A00292E0A0A00507243
:100BB0006F62696E672061726F756E642028004DE8
:100BC00065736820696E76616C6964617465642E12
:100BD0002050726F62696E67206D6573682E0A001F
:100BE0004D657368207A65726F65642E0A004465EE
:100BF0006661756C742073746F7261676520736CC5
:100C00006F7420302073656C65637465642E0A0010
:100C10004170706C79696E672074657374207061BF
:100C2000747465726E2E0A0A003F496E76616C69B3
:100C30006420285129207465737420706174746570
:100C4000726E2E20283020746F2032290A0A00206C
:100C5000696E76616C6964617465642E0A0A004C81
:100C60006F636174696F6E7300456E74697265209D
:100C70004D657368005374616E64617264204465ED
:100C800076696174696F6E3A20004D65616E204D22
:100C9000657368204865696768743A200023206F8F
:100CA000662073616D706C65733A20000A4D657340
:100CB00068206F6E6C79207061727469616C6C79F8
:100CC00020706F70756C617465642E0A0A00507232
:100CD0006F62696E6720506F696E7400255320251E
:100CE000692F2569002E0A002F0050726F62696E0D
:100CF00067206D65736820706F696E7420002061D5
:100D00006E642074616B652061206D65617375721E
:100D1000656D656E742E0A006D6D20746869636B75
:100D20002E0A00427573696E6573732043617264A5
:100D3000206973200052656D6F76652026204D6511
:100D40006173757265204265640052656D6F7665EA
:100D5000207368696D00506C616365207368696D0C
:100D600020756E646572206E6F7A7A6C65000A4D2C
:100D7000657368206F6E6C79207061727469616C44
:100D80006C7920706F70756C617465642E0A004D0B
:100D900065736820506F696E74204D65617375725C
:100DA00065642061743A20004D6561737572650059
:100DB0004D65617375726500506C616365205368A1
:100DC000696D2026204D65617375726500506C61F8
:100DD0006365205368696D2026204D6561737572C7
:100DE00065004D6F76696E6720746F206E6578744C
:100DF000004D6573682045646974696E672053749B
:100E00006F7070656400446F6E6520456469746935
:100E10006E67204D6573680A00446F6E65204564F7
:100E20006974696E67204D6573680046696E652058
:100E300054756E696E67204D6573680028582C598B
:100E400029206F757473696465207072696E7461AE
:100E5000626C65207261646975732E0A004F666664
:100E6000736574206F7574206F6620626F756E6491
:100E7000732E20283020746F2031306D6D290A0ABE
:100E800000496E76616C6964206D617020747970C0
:100E9000652E0A0A003F2846296164652068656955
:100EA00067687420666F7220426564204C657665C1
:100EB0006C20436F7272656374696F6E206E6F741D
:100EC00020706C61757369626C652E0A0A003F437D
:100ED000616E277420616374697661746520616E48
:100EE000642064656163746976617465206174204F
:100EF0007468652073616D652074696D652E0A0ADA
:100F000000426F7468205820262059206C6F63615E
:100F100074696F6E73206D757374206265207370D1
:100F2000656369666965642E0A0A003F496E7661E9
:100F30006C696420677269642073697A6520284A45
:100F400029207370656369666965642028322D39CC
:100F5000292E0A0A003F28502968617365207661AE
:100F60006C756520696E76616C69642028302D3659
:100F7000292E0A0A003F2856296572626F73652080
:100F80006C6576656C20696D706C61757369626CF7
:100F9000652028302D34292E0A0A003F2852296561
:100FA0007065746974696F6E20636F756E74206903
:100FB0006E76616C69642028312B292E0A0A004460
:100FC0006F696E672047323900480743073E07398B
:100FD000075D0A0062656420706C616E65206E6F4B
:100FE000726D616C203D205B00436F756C64206EF8
:100FF0006F7420636F6D706C657465204C5346216F
:1010000000436F727265637465645F5A3D002553D7
:101010002025692F2569000A0A002F0054696C7485
:10102000696E67206D65736820706F696E7420004B
:101030003F4572726F722070726F62696E672070C6
:101040006F696E742E2041626F7274696E67206FD3
:101050007065726174696F6E2E0A00436F727265FB
:10106000637465645F5A3D00255320332F33005469
:10107000696C74696E67206D6573682028332F333F
:10108000290A00436F727265637465645F5A3D009C
:10109000255320322F330054696C74696E67206DBC
:1010A0006573682028322F33290A00436F727265F6
:1010B000637465645F5A3D0054696C74696E67209F
:1010C000506F696E7400255320312F330054696CC2
:1010D00074696E67206D6573682028312F33290A83
:1010E00000646F6E650A00496E73756666696369B0
:1010F000656E7420646174610A0045787472617071
:101100006F6C6174696E67206D6573682E2E2E009A
:101110000000803F721C8942721C0843ABAA4B43FB
:10112000729C87438E63A943AB2ACB43C8F1EC433F
:10113000725C0744004018440000803F9224AD4296
:1011400092242C436EDB804392A4AB43B66DD6430E
:101150006E9B00440000164492642B4424C9404412
:10116000B62D564449926B446E7B8044B72D8B4418
:1011700000E09544486F74656E6420746F6F20635F
:101180006F6C640A00507265737320627574746FBB
:101190006E20746F20726573756D650A00496E73F9
:1011A0006572742066696C616D656E7420616E6431
:1011B00020707265737320627574746F6E0A0050CC
:1011C0007265737320627574746F6E20746F20681B
:1011D000656174206E6F7A7A6C650A00496E73657A
:1011E00072742066696C616D656E7420616E642036
:1011F000707265737320627574746F6E0A00473283
:10120000362043616E63656C656400473236204862
:10121000656174696E67204E6F7A7A6C65005761FC
:101220006974696E6720666F722068656174757095
:101230002E0A004669786564204C656E67746820E4
:101240005072696D6500446F6E65205072696D69FA
:101250006E67004D616E75616C207072696D696EAC
:10126000672E2E2E004C656176696E6720473236F8
:10127000003F53706563696669656420582C592086
:10128000636F6F7264696E617465206F7574206F2F
:101290006620626F756E64732E0A003F28522965BE
:1012A000706561742076616C7565206E6F74207056
:1012B0006C61757369626C653B206D757374206237
:1012C00065206174206C6561737420312E0A003FC3
:1012D000537065636966696564206E6F7A7A6C65C0
:1012E0002074656D7065726174757265206E6F74BF
:1012F00020706C61757369626C652E0A003F5370D3
:10130000656369666965642066696C616D656E74A4
:101310002073697A65206E6F7420706C61757369D3
:10132000626C652E0A003F53706563696669656487
:10133000207072696D65206C656E677468206E6FD1
:101340007420706C61757369626C652E0A003F537E
:101350007065636966696564206E6F7A7A6C652072
:1013600073697A65206E6F7420706C617573696241
:101370006C652E0A003F52657472616374696F6E0A
:10138000204D756C7469706C696572206D7573742D
:10139000206265207370656369666965642E0A0062
:1013A0003F53706563696669656420526574726154
:1013B0006374696F6E204D756C7469706C696572C9
:1013C000206E6F7420706C61757369626C652E0A93
:1013D000003F537065636966696564206C61796577
:1013E0007220686569676874206E6F7420706C6124
:1013F000757369626C652E0A00473236207374611A
:101400007274696E672E2E2E0A004F46460A0046F9
:1014100061646520486569676874200042656420DE
:101420004C6576656C696E6720004661696C656421
:1014300020746F20656E61626C6520426564204C8B
:101440006576656C696E670A00496E76616C6964E1
:10145000206D6573682E0A0076616C69640A5374A6
:101460006F7261676520736C6F743A2000696E005B
:101470004D65736820697320003F557365203020E7
:10148000746F20003F496E76616C69642073746FDD
:101490007261676520736C6F742E0A003F4545507A
:1014A000524F4D2073746F72616765206E6F7420A8
:1014B000617661696C61626C652E0A0020440020CF
:1014C000204D32303020540020204D323030205317
:1014D00000202844697361626C6564293A0046699A
:1014E0006C616D656E742073657474696E677300EA
:1014F00020204D3230312058004D61782041636307
:10150000656C65726174696F6E2028756E6974739D
:101510002F7332290020204D3230332058004D6186
:1015200078206665656472617465732028756E69DC
:1015300074732F73290020520020204D3230342044
:101540005000416363656C65726174696F6E202839
:10155000756E6974732F7332292028503C7072693C
:101560006E742D616363656C3E20523C72657472CB
:101570006163742D616363656C3E20543C747261D9
:1015800076656C2D616363656C3E290020540020F4
:10159000530020204D323035204200416476616E88
:1015A0006365642028423C6D696E5F7365676D6595
:1015B0006E745F74696D655F75733E20533C6D6931
:1015C0006E5F66656564726174653E20543C6D694A
:1015D0006E5F74726176656C5F6665656472617476
:1015E000653E20583C6D61785F6A65726B3E20599C
:1015F0003C6D61785F6A65726B3E205A3C6D617824
:101600005F6A65726B3E20453C6D61785F6A65720A
:101610006B3E290020204D32313700546F6F6C2D06
:101620006368616E67696E670020204D3231382033
:101630005400486F74656E64206F666673657473DA
:1016400000203B00205500204C0020204D36303338
:1016500020540046696C616D656E74206C6F616426
:101660002F756E6C6F6164003B200020496E7661BF
:101670006C69642065787472756465722000473205
:101680002F47332062616420706172616D657465FB
:1016900072730A00536C6565702E2E2E00205A3A24
:1016A000200020593A200042656420583A20004D1D
:1016B00065736820706F696E74206F7574206F6633
:1016C0002072616E67650A00436C69636B20746FFA
:1016D00020526573756D652E2E2E004E6F204D6F56
:1016E00076652E00456E642066696C65206C6973B2
:1016F000740A00426567696E2066696C65206C69D2
:1017000073740A004E6F206D656469610A00286E6B
:101710006F2066696C65290043757272656E74206E
:1017200066696C653A20004E6F74205344207072D5
:10173000696E74696E670A005344207072696E7432
:10174000696E67206279746520002E0A0044656C1A
:101750006574696F6E206661696C656420287265C6
:1017600061642D6F6E6C79292C2046696C653A2076
:10177000002569730025696D202569730025696856
:101780002025696D20256973002569642025696815
:101790002025696D202569730025697920256964F4
:1017A000202569682025696D2025697300507269BC
:1017B0006E742074696D653A20006F6B006F666609
:1017C000006E07690762075B074D074445425547AE
:1017D0003A004D3131322053687574646F776E0072
:1017E0004D3131332053004D6F6469782042696771
:1017F0002D31323058204F46462E00434F4E464939
:10180000475F4558504F5254004D45415450414355
:101810004B00434F4F4C45525F54454D504552414C
:1018200054555245004348414D4245525F54454D41
:101830005045524154555245004241425953544536
:101840005050494E470041524353004D4F54494F69
:101850004E5F4D4F44455300544845524D414C5FF7
:1018600050524F54454354494F4E00455854454EED
:101870004445445F4D323000435553544F4D5F460D
:1018800049524D574152455F55504C4F4144004CD1
:10189000464E5F5752495445004C4F4E475F4649AC
:1018A0004C454E414D45004155544F5245504F52C5
:1018B000545F53445F5354415455530053445F574E
:1018C0005249544500524550454154004D554C54E1
:1018D000495F564F4C554D450053444341524400D7
:1018E00050524F4D50545F535550504F5254004832
:1018F0004F53545F414354494F4E5F434F4D4D4109
:101900004E445300454D455247454E43595F504163
:101910005253455200434153455F4C494748545F39
:101920004252494748544E45535300544F47474C41
:10193000455F4C494748545300534F465457415212
:10194000455F504F574552004255494C445F504502
:101950005243454E54004C4556454C494E475F4412
:10196000415441005A5F50524F42450052554E4F2C
:101970005554004155544F4C4556454C0050524922
:101980004E545F4A4F420050524F47524553530006
:101990004155544F5245504F52545F54454D50009D
:1019A0004155544F5245504F52545F504F5300567B
:1019B0004F4C554D455452494300454550524F4DAB
:1019C0000042494E4152595F46494C455F5452418D
:1019D0004E534645520053455249414C5F584F4E75
:1019E0005F584F4646004649524D574152455F4E5B
:1019F000414D453A4D61726C696E20322E312E3167
:101A000020284A616E202035203230323320313197
:101A10003A33303A30302920534F555243455F43D3
:101A20004F44455F55524C3A6769746875622E633E
:101A30006F6D2F4D61726C696E4669726D77617260
:101A4000652F4D61726C696E2050524F544F434F59
:101A50004C5F56455253494F4E3A312E30204D413E
:101A60004348494E455F545950453A4D6F64697833
:101A7000204269672D313230582045585452554420
:101A800045525F434F554E543A3220555549443ADA
:101A900063656465326132662D343161322D3437CD
:101AA00034382D396231322D633535633632663341
:101AB000363766660A002F2F004D31343520533CEF
:101AC000696E6465783E206F7574206F6620726160
:101AD0006E67652028302D31290A005741524E4942
:101AE0004E4721204C6F77205A204A65726B206D3B
:101AF0006179206C65616420746F20756E77616E0A
:101B0000746564207061757365732E0A0020580037
:101B100020204D61783A2000200020204D696E3A47
:101B20002000203B200020204D3231312053005333
:101B30006F667420656E6473746F70730046523AFA
:101B40000020466C6F773A20003A200020536572DF
:101B5000766F2000206F7574206F662072616E674B
:101B6000650A00536572766F200064697300656EC4
:101B70000043290A0061626C656420286D696E204B
:101B800074656D702000436F6C64206578747275A5
:101B90006465732061726520004F4646004F4E0019
:101BA00046696C616D656E742072756E6F75742018
:101BB000004D65736820706F696E74206F757420B6
:101BC0006F662072616E67650A004D34323120699C
:101BD0006E636F727265637420706172616D65749B
:101BE00065722075736167650A004F666673657478
:101BF00073204170706C696564004572723A2054BC
:101C00006F6F206661722100546F6F2066617220D1
:101C100066726F6D207265666572656E63652070B1
:101C20006F696E740A00454550524F4D204F4B0A64
:101C300000290A0020746F20003F5A206F7574201D
:101C40006F662072616E6765202800290A00207483
:101C50006F20003F59206F7574206F662072616E8F
:101C6000676520282D00290A0020746F20003F5846
:101C7000206F7574206F662072616E676520282D55
:101C8000004D383458594500446F6E6520707269B4
:101C90006E74696E672066696C650A004D3737009F
:101CA0004D3331005045544700504C41004D6F7644
:101CB0006520246D6D00302E303235004D6F766515
:101CC00020302E316D6D004D6F766520316D6D00C9
:101CD0004D6F76652031306D6D004D6F766520312A
:101CE00030306D6D004D6F7665202A004D6F766542
:101CF0002040004F6666004F6E00536F66742045AB
:101D00006E6473746F7073004261636B0044697337
:101D100061626C65205374657070657273004D3834
:101D200034004732385A004732385900486F6D65E1
:101D300020400047323858004175746F20486F6D5D
:101D400065004D6F76652041786973004D61696E5D
:101D50000050726568656174202420416C6C0050ED
:101D60007265686561742024207E0054656D70651D
:101D7000726174757265004D3330362054004D50D9
:101D800043204175746F74756E6500436F6F6C64AA
:101D90006F776E0046616E205370656564004E6F0C
:101DA0007A7A6C65207E00507265686561742024C3
:101DB000004D61696E004261627973746570205AEA
:101DC000004261627973746570204000466C6F77E1
:101DD000207E00466C6F770046616E20537065650B
:101DE00064004E6F7A7A6C65207E0053706565647E
:101DF000004D61696E005A2056616C75650047326E
:101E0000380A4D313039205325690A47323920507C
:101E10003100486F74656E642054656D70002E2526
:101E200069004732395036432D0048656967687448
:101E300020416D6F756E740041646A757374204D36
:101E4000657368204865696768740046696E652037
:101E500054756E6520436C6F736573740047323937
:101E60005034540046696E652054756E6520416C8F
:101E70006C00473239503452540056616C696461C9
:101E80007465204D657368202850455447290056D5
:101E9000616C6964617465204D6573682028504CDD
:101EA000412900504C41204E6F7A7A6C653A312EB0
:101EB00030004732380A47323620432053312E3023
:101EC0002048323135204C302E3500504C41204EC8
:101ED0006F7A7A6C653A302E38004732380A4732CA
:101EE0003620432053302E382048323130204C30B9
:101EF0002E3400504C41204E6F7A7A6C653A302E69
:101F000036004732380A47323620432053302E36C7
:101F10002048323130204C302E3300504C41204E7E
:101F20006F7A7A6C653A302E34004732380A47327D
:101F30003620432053302E342048323035204C3068
:101F40002E3200496E666F2053637265656E0050D5
:101F5000455447204E6F7A7A6C653A312E300047EF
:101F600032380A47323620432053312E302048324F
:101F70003530204C302E350050455447204E6F7A76
:101F80007A6C653A302E38004732380A47323620AC
:101F9000432053302E382048323435204C302E34F4
:101FA0000050455447204E6F7A7A6C653A302E3691
:101FB000004732380A47323620432053302E36202D
:101FC00048323430204C302E330050455447204E98
:101FD0006F7A7A6C653A302E34004732380A4732CD
:101FE0003620432053302E342048323430204C30B9
:101FF0002E32004C6576656C204D65736800536920
:10200000646520506F696E74730047726964204D77
:10201000657368204C6576656C696E6700342D5079
:102020006F696E74204C6576656C696E6700473227
:10203000394A3200473239503352432E2569004D18
:10204000616E75616C2046696C6C2D696E0047325B
:1020500039503242543000536D6172742046696CBD
:102060006C2D696E00473239503354300046696C2C
:102070006C2D696E20416D6F756E7400A91CA41CD7
:1020800046696C6C2D696E204D65736800427569F8
:102090006C6420437573746F6D204D6573680047E1
:1020A00032380A4D31303949310A47323950310A14
:1020B0004D31303453300A4D313430533000427595
:1020C000696C64204D6573682028242900473238E4
:1020D0000A4D31303949300A47323950310A4D31D1
:1020E000303453300A4D31343053300047323925C3
:1020F0006325690A4D31313720004D65736820250D
:1021000069204C6F61646564004D657368202569C2
:1021100020536176656400536176652042656420D2
:102120004D657368004C6F616420426564204D65A5
:102130007368004D656D6F727920536C6F74004E3B
:102140006F2053746F72616765004732395034589D
:10215000257359257352256900202D2D2D2D2D0015
:102160005A3A00593A00486F6D696E672058595ABB
:1021700000473238004F6666205072696E7465728F
:10218000204261636B757000473239532D31004F27
:10219000757470757420666F7220486F7374004791
:1021A00032395430004D657368204C6576656C6932
:1021B0006E670045646974204D65736800427569F7
:1021C0006C64204D65736800352E20536176652060
:1021D000426564204D65736800342E2046696E6543
:1021E0002054756E6520416C6C0047323950345272
:1021F0005400332E2056616C6964617465204D650E
:10220000736800322E20536D6172742046696C6CC5
:102210002D696E004732395033543000312E204240
:1022200075696C6420436F6C64204D65736800476A
:1022300032394E503100556E6966696564204265D9
:1022400064204C6576656C696E67004F75747075B7
:10225000742055424C20496E666F00473239570052
:1022600055424C20546F6F6C73004F7574707574C9
:10227000204D657368204D6170004D657368205373
:10228000746F72616765004D657368204564697499
:1022900000537465702D42792D537465702055423A
:1022A0004C00466164652048656967687400416355
:1022B0007469766174652055424C0047323941009B
:1022C000446561637469766174652055424C0047CA
:1022D000323944004261636B004732394A25690054
:1022E0006F70656E00545249474745524544003A65
:1022F000200066696C616D656E74007A5F6D696E51
:1023000000795F6D617800795F6D696E00785F6D4F
:10231000696E005265706F7274696E6720656E64D5
:1023200073746F70207374617475730A0000009683
:102330004400801844000016440000000000000023
:10234000000000000020636F6C6420657874727573
:1023500073696F6E2070726576656E7465640A00CD
:102360000000000000801844000000005761726EF9
:10237000696E673A20486F6D696E672042756D70AF
:102380002044697669736F72203C20310A00020292
:10239000040000964400801844000016440000A089
:1023A000400000A0400000004020636F6C64206586
:1023B0007874727573696F6E2070726576656E746D
:1023C00065640A0053544F505045442E200050720B
:1023D000696E7465722073746F70706564206475C3
:1023E0006520746F206572726F72732E2046697853
:1023F00020746865206572726F7220616E6420754A
:102400007365204D39393920746F2072657374619A
:1024100072742E202854656D7065726174757265D2
:102420002069732072657365742E2053657420696A
:102430007420616674657220726573746172746968
:102440006E67290A00206572726F72202D207265F6
:1024500073746172742077697468204D3939390A50
:1024600000424C546F7563680021212053544F5033
:102470002063616C6C6564206265636175736520BF
:102480006F66200053657474696E67732053746FB0
:1024900072656400290A002062797465733B2063C9
:1024A0007263200053657474696E67732053746F90
:1024B0007265642028004D657368207361766564D9
:1024C00020696E20736C6F7420003F556E61626CE2
:1024D0006520746F2073617665206D657368206474
:1024E0006174612E0A0020736C6F743D00206D656D
:1024F000736865735F656E643D004532454E443DCB
:1025000000206D65736820736C6F74732061766151
:10251000696C61626C652E0A003F496E76616C6978
:102520006420736C6F742E0A004D657368206C6FA5
:10253000616465642066726F6D20736C6F74200037
:102540003F556E61626C6520746F206C6F61642012
:102550006D65736820646174612E0A00486172645D
:10256000636F6465642044656661756C74205365AF
:102570007474696E6773204C6F6164656400202811
:102580006D6D2900203B204C6576656C696E672077
:102590000020204D343230205300556E6966696545
:1025A0006420426564204C6576656C696E67002026
:1025B000460020480020204D3134352053004D6125
:1025C00074657269616C20686561747570207061F2
:1025D00072616D657465727300203B2053656E7384
:1025E0006F72200020204D34313220530046696C38
:1025F000616D656E742072756E6F75742073656E93
:10260000736F7200206D65736865732E0A0A00454A
:102610004550524F4D2063616E20686F6C642000FE
:10262000416374697665204D65736820536C6F74DF
:10263000200020204D3134392043203B20556E6945
:10264000747320696E2043656C736975730A005456
:10265000656D706572617475726520556E6974730D
:10266000002020473231203B004C696E65617220AA
:10267000556E697473003F4D65736820746F6F20E9
:1026800062696720666F7220454550524F4D2E0A91
:1026900000454550524F4D206461746173697A65FD
:1026A000206572726F722E0A0055424C207265735B
:1026B00065740A00206C6F616465642066726F6DDA
:1026C0002073746F726167652E0A004D6573682010
:1026D00000290A002062797465733B2063726320CD
:1026E000002073746F7265642073657474696E671B
:1026F00073207265747269657665642028002028ED
:1027000063616C63756C6174656429210A00202122
:102710003D2000454550524F4D20435243206D69A6
:10272000736D61746368202D202873746F72656403
:102730002920002053697A653A2000496E64657843
:102740003A200000009643000096430000A040009D
:1027500000C841000048430000C8420000FA44009D
:1027600040D143B0040000B0040000640000001039
:10277000270000204D61726C696E3D563836290A7B
:1027800000454550524F4D2076657273696F6E203B
:102790006D69736D617463682028454550524F4DD3
:1027A0003D0020436F756E7420583A004531004556
:1027B000320045002C2073797374656D2073746F3B
:1027C0007070656421204865617465725F49443AA0
:1027D0002000544845524D414C2052554E415741DE
:1027E0005900546865726D616C2052756E61776135
:1027F000790048656174696E67204661696C65643B
:102800000048656174696E67206661696C65640083
:102810004572723A204D415854454D50004D415833
:1028200054454D5020747269676765726564004550
:1028300072723A204D494E54454D50004D494E5408
:10284000454D502074726967676572656400202F7A
:10285000001FE020102310249010A011202210242B
:102860001037B00840048003001FE020102110231F
:102870001015201120211021103130084004800350
:10288000001FE03FF03CF03B701F601EE03DF03B5E
:10289000F038700FC0078003001FE03FF03EF03CAF
:1028A000F01AE01EE03EF03EF03EF00FC00780035D
:1028B00000554E4C4F41442046494C414D454E54E5
:1028C000004C4F41442046494C414D454E54004632
:1028D000494C414D454E54204348414E4745002008
:1028E000204D323036205800486F6D65206F666687
:1028F000736574004361703A00203B0020204D381E
:1029000035312058005A2D50726F6265204F66662F
:1029100073657400452563202553004D50435F4186
:102920004D4249454E545F584645525F434F4546D8
:10293000465F46414E32353520004D50435F414D94
:102940004249454E545F584645525F434F454646BF
:1029500020004D50435F53454E534F525F524553F5
:10296000504F4E534956454E45535320004D50430A
:102970005F424C4F434B5F484541545F4341504198
:102980004349545920002066696E69736865642163
:10299000205075742074686520636F6E7374616E67
:1029A00074732062656C6F7720696E746F20436F5B
:1029B0006E66696775726174696F6E2E680A004D84
:1029C0005043204175746F74756E650054656D7069
:1029D00065726174757265206572726F720A005457
:1029E000657374696E672068656174206C6F7373BA
:1029F000004D6561737572696E6720616D6269650E
:102A00006E7420686561746C6F737320617420004C
:102A100048656174696E672E2E2E00486561746981
:102A20006E6720746F206F76657220323030430AF3
:102A300000436F6F6C696E672E2E2E00436F6F6CB4
:102A4000696E6720746F20616D6269656E740A003B
:102A500020737461727420666F722045004D50437C
:102A6000204175746F74756E650020480020460023
:102A700020410020520020430020500020204D33F0
:102A800030362045004D6F64656C20707265646956
:102A9000637469766520636F6E74726F6C00457243
:102AA000723A207574663820666F6E74206E6F748B
:102AB00020696E697469616C697A65642E0045727B
:102AC000723A207574663820666F6E74206E6F746B
:102AD00020696E697469616C697A65642E0045725B
:102AE000723A207574663820666F6E74206E6F744B
:102AF00020696E697469616C697A65642E00256865
:102B0000753A25303268750025303268753A2530BF
:102B100032687500253032687527253032687500B7
:102B2000256875642025303268753A25303268751D
:102B30000042656400456E636C6F737572650020BA
:102B400020202020202000202020200065727200FC
:102B500069285128992881283FFFF038007030FCFF
:102B60003020FC102078102030102C00D02E31D0D6
:102B70002F7BD02F7BD02E31D02C00D020301020B6
:102B8000781020FC1030FC303800703FFFF03FFF21
:102B9000F03800703186302387102787902F87D038
:102BA0002F03D02030102078102078102030102FE4
:102BB00003D02F87D02787902387103186303800A5
:102BC000703FFFF04D6F646978204269672D3132A4
:102BD00030582052656164792E005072696E7469B4
:102BE0006E672E2E2E005072696E742041626F72D5
:102BF000746564004D323520500A4D3234005072F5
:102C0000696E7420506175736564005061757369F5
:102C10006E672E2E2E004D323400454550524F4DDA
:102C20002056657273696F6E204572726F7200452F
:102C30004550524F4D20496E646578204572726F41
:102C40007200454550524F4D204352432045727209
:102C50006F72003F0049676E6F7265005265736561
:102C60007400496E697469616C697A6520454550E4
:102C7000524F4D004D696E2054726176656C205341
:102C800070656564004D696E2056656C6F6369748C
:102C900079004D61782040205370656564004D6176
:102CA00078204520416363656C004D6178204020A9
:102CB000416363656C0054726176656C20416363A7
:102CC000656C005265747261637420416363656C66
:102CD00000416363656C004D61782040204A657255
:102CE0006B00402073746570732F6D6D00416476C6
:102CF000616E6365642053657474696E6773003F29
:102D00000043616E63656C00496E697400496E69C9
:102D10007469616C697A6520454550524F4D005386
:102D2000746570732F6D6D004A65726B004163634B
:102D3000656C65726174696F6E004D6178205370C7
:102D400065656420286D6D2F732900436F6E666979
:102D50006775726174696F6E004E6F7A7A6C650088
:102D600046616E20537065656400436F6E666967E7
:102D700075726174696F6E00526573746F7265204D
:102D800044656661756C7473004C6F6164205365B3
:102D90007474696E67730053746F72652053657441
:102DA00074696E67730050726568656174202420D1
:102DB000436F6E66004F6666004F6E0052756E6F11
:102DC00075742053656E736F720050726F62652068
:102DD0005A204F666673657400416476616E636560
:102DE000642053657474696E6773004D61696E0089
:102DF0004D37303220542564004D3630302042307B
:102E000020542564004D373032203B2564004D3777
:102E1000303120542564004368616E67652046693F
:102E20006C616D656E7400507265686561742043F5
:102E30007573746F6D00507265686561742024004D
:102E40004261636B004368616E67652046696C612F
:102E50006D656E74202A00476F20746F207468655A
:102E60002046726F6E74004732380A20473120586E
:102E700033303020593530204635303030004D6108
:102E8000696E00436F6E74696E7565004F6666000B
:102E90004F6E0052756E6F75742053656E736F724E
:102EA000005075726765206D6F726500524553550D
:102EB0004D45204F5054494F4E533A005052494EC1
:102EC00054205041555345440020204E6F7A7A6C6F
:102ED000653A20005061726B696E672E2E2E0000DD
:102EE000005761697420666F720066696C616D6578
:102EF0006E74206368616E676500746F207374611F
:102F00007274005761697420666F720066696C6143
:102F10006D656E7420756E6C6F616400004E6F7A23
:102F20007A6C652068656174696E6700506C6561D4
:102F3000736520776169742E2E2E000050726573C0
:102F40007320627574746F6E00746F2068656174AD
:102F5000206E6F7A7A6C650000496E73657274201A
:102F600066696C616D656E7400616E642070726577
:102F7000737320627574746F6E00746F20636F6E6C
:102F800074696E7565005761697420666F720066BA
:102F9000696C616D656E74206C6F616400005072C5
:102FA00065737320427574746F6E00746F20726560
:102FB00073756D65207072696E7400005761697475
:102FC00020666F72207072696E7400746F20726573
:102FD00073756D652E2E2E00005761697420666F23
:102FE000720066696C616D656E74207075726765DC
:102FF00000004D36303020423020542569003F001B
:1030000053746F70004E6F204D656469610050729B
:10301000696E742066726F6D204D65646961003160
:103020003230582043616C6962726174696F6E005E
:103030004368616E67652046696C616D656E7400FA
:10304000436F6E66696775726174696F6E0054656F
:103050006D7065726174757265004D6F74696F6E25
:10306000004175746F20486F6D650050726568652A
:10307000617420437573746F6D00526573756D656F
:10308000205072696E740054756E650053746F70D1
:10309000205072696E7400506175736520507269BA
:1030A0006E7400496E666F2053637265656E005AD8
:1030B000204F66667365742043616C696272617447
:1030C000696F6E00556E69666965642042656420AB
:1030D0004C6576656C696E670054696C7420436159
:1030E0006C6962726174696F6E0050726F62652004
:1030F00043616C6962726174696F6E004D61696EE3
:1031000000332E20536176652053657474696E67B1
:1031100073004D3231312053310A20473238004795
:103120003238205820590A20473120583330302077
:103130005935302046353030300A204D323131207B
:1031400053300A20473238205A00342E2043616C15
:1031500069627261746520526967687400332E2059
:1031600043616C696272617465204C6566740032FB
:103170002E2041646A7573742048656967687428F5
:103180005A2900312E2053746172742050726F637B
:1031900065737300473238205820590A2047312080
:1031A00058363030205933303020463530303000FA
:1031B000322E476F20746F2046726F6E74204C2E33
:1031C00053637265770047312058302059333020DF
:1031D00046353030300A204D383400312E476F20CC
:1031E000746F2052656172204C2E536372657700B4
:1031F0004731205830205936303020463530303075
:103200000A204D383400322E476F20746F204672EA
:103210006F6E7420522E53637265770047312058C9
:1032200031323030205933302046353030300A20AA
:103230004D383400312E476F20746F205265617213
:1032400020522E5363726577004731205831323057
:103250003020593630302046353030300A204D3855
:10326000340053617665205A204F6666736574009A
:10327000352E5072696E742054657374204C696EDB
:1032800065004739322045300A2047312058323016
:10329000302045333520463530300A20473932203A
:1032A00045300A20473120463130303020452D311D
:1032B0000A20473238205820590048656174696EE9
:1032C000672C20506C6561736520776169742100FB
:1032D000342E56657269667920486569676874009E
:1032E000473238205A0A204731205830205932308E
:1032F0002046353030300A204731205A302E3200F7
:10330000332E486F6D6520582026205900473238EB
:103310002058205900322E536574205A204F66667B
:1033200073657400312E5365742054656D65726148
:1033300074757265004261636B003F005374617283
:1033400074205072696E740043616E63656C005046
:1033500072696E740043616E6E6F7420656E746581
:1033600072207375626469723A200002202E2E006A
:103370004D61696E00000C0F00FE07022503BB01C2
:103380007FFE08FE08FE05080806000040F0C88819
:1033900088987810050808060000C0F88888888892
:1033A00088F80505050600012030F83020050808DA
:1033B0000600002070F820202020E0050909060002
:1033C000FF2070A8A8B888887020070505070001AD
:1033D000D86C366CD80509090600FFF8A8888888DB
:1033E0008888A8F8050A0A0600FE20505050508828
:1033F000A8A8887003030306000340A040FFFFFF56
:10340000FFFFFFFFFFFFFFFFFFFFFFFFFFFFFFFFCC
:10341000FFFFFF0000000605FF010707060200800E
:10342000808080800080030303060105A0A0A00522
:10343000060606000050F85050F85005090906002D
:10344000FF2070A8A07028A87020050707060000BC
:10345000C8C8102040989805070706000040A0A0A3
:1034600040A89068010303060205808080030909D3
:103470000601FF204040808080404020030909066B
:1034800001FF8040402020204040800507070600C3
:103490000020A8702070A820050505060001202046
:1034A000F820200203030601FFC040800501010649
:1034B0000003F8020202060100C0C005070706006B
:1034C00000081010204040800507070600007088A3
:1034D00098A8C8887003070706010040C040404014
:1034E00040E0050707060000708808102040F80536
:1034F0000707060000F8081030088870050707065F
:10350000000010305090F81010050707060000F872
:1035100080F008088870050707060000304080F03A
:10352000888870050707060000F808101020202082
:1035300005070706000070888870888870050707EF
:1035400006000070888878081060020505060100F2
:10355000C0C000C0C00206060601FFC0C000C040D7
:103560008003050506010120408040200503030675
:103570000002F800F80305050601018040204080A4
:1035800005070706000070881020200020050707A7
:103590000600007088B8A8B880700507070600000C
:1035A000708888F8888888050707060000F0484872
:1035B000704848F005070706000070888080808802
:1035C00070050707060000F04848484848F005071E
:1035D00007060000F88080F08080F80507070600E5
:1035E00000F88080F0808080050707060000708862
:1035F0008080988870050707060000888888F8880A
:103600008888030707060100E04040404040E0058D
:103610000707060000381010101090600507070615
:1036200000008890A0C0A0908805070706000080D1
:103630008080808080F805070706000088D8A88869
:103640008888880507070600008888C8A8988888A1
:1036500005070706000070888888888870050707B6
:10366000060000F08888F0808080050707060000CB
:1036700070888888A89068050707060000F0888889
:10368000F0A0908805070706000070888070088801
:1036900070050707060000F82020202020200507DD
:1036A0000706000088888888888870050707060054
:1036B0000088888888505020050707060000888801
:1036C0008888A8A850050707060000888850205061
:1036D00088880507070600008888502020202005DC
:1036E0000707060000F80810204080F803090906C3
:1036F00001FFE080808080808080E0050707060071
:1037000000804040201010080309090601FFE02056
:10371000202020202020E0050303060005205088FB
:103720000501010600FEF8030303060105804020A1
:10373000050505060000700878887805070706006B
:10374000008080F0888888F00505050600007080FC
:103750008088700507070600000808788888887840
:103760000505050600007088F08070050707060053
:1037700000304840E04040400507070600FE7088E2
:1037800088887808700507070600008080F0888820
:1037900088880307070601004000C0404040E0045D
:1037A00009090601FE100030101010109060050786
:1037B0000706000080808890E090880307070601D4
:1037C00000C04040404040E0050505060000D0A88C
:1037D000A8A8A8050505060000B0C88888880505C2
:1037E0000506000070888888700507070600FEF04F
:1037F000888888F080800507070600FE788888881A
:10380000780808050505060000B0C8808080050519
:103810000506000078807008F00507070600002004
:1038200020F82020201805050506000088888898C3
:1038300068050505060000888888502005050506EE
:1038400000008888A8A850050505060000885020BB
:1038500050880507070600FE8888885020408005AC
:103860000505060000F8102040F80309090601FFCD
:103870002040404080404040200109090602FF806E
:1038800080808080808080800309090601FF80405D
:103890004040204040408005030306000248A890B5
:1038A000FF20400020403A0020573A0020696E7403
:1038B0006572727570746564210A004D5043204131
:1038C00075746F74756E6500496E76616C696420FD
:1038D00065787472756465720A004163746976650F
:1038E0002045787472756465723A20004D6564698C
:1038F0006120496E6974204661696C0053442063FD
:10390000617264206F6B0A006F70656E526F6F7426
:10391000206661696C65640A00766F6C756D652E52
:10392000696E6974206661696C65640A004E6F2077
:10393000534420636172640A0053442063617264DB
:103940002072656C65617365640A000A4D3234004B
:103950004D3233202573002E0A006F70656E20668D
:1039600061696C65642C2046696C653A2000466983
:103970006C652073656C65637465640A0020536927
:103980007A653A200046696C65206F70656E6564E3
:103990003A2000454E4420535542524F5554494E0B
:1039A000450A002220706F73002220706172656EDC
:1039B000743A2200535542524F5554494E452043C4
:1039C000414C4C207461726765743A2200537562F1
:1039D00063616C6C204F766572666C6F770045781A
:1039E000636565646564206D617820535542524F6C
:1039F0005554494E452064657074683A0066726596
:103A0000736800646F696E67002066696C653A20B0
:103A1000004E6F7720002F6175746F25632E67004D
:103A20000000000000000000000000000000000096
:103A30000000000000000000000000000000000086
:103A40000000000000000000000000000000000076
:103A50000000000000000000000000000000000066
:103A60000000000000000000000000000000000056
:103A70000000000000000000000000000000000046
:103A80000000000000000000000000000000000036
:103A9000000FFE07FE0000000007F3F80000000022
:103AA000000FFE07FE0000000007F3F80000000012
:103AB000000FFE0FFE0000000007F3F800000000FA
:103AC000000FFF0FFE0000000007E3F800000000F9
:103AD000000FFF1FFE0000000007E00000000000D4
:103AE000000FFF1FFE01FE0007FFE3F8FF8FF0004D
:103AF000000FFF1FFC07FFC01FFFE3F87F9FE000E0
:103B0000000FFFBFFC1FFFE03FFFE3F83FDFC000F7
:103B1000000FFFBFFC1FFFF07FFFE3F83FFF8000B7
:103B2000000FFFBEFC3FFFF0FF0FE3F01FFF800020
:103B3000000FDFFFFC7FC7F8FE0FE3F00FFF000070
:103B4000000FDFFFFC7F03F9FC0FE3F00FFE000026
:103B5000001FDFFFFC7F03F9FC0FC3F007FC000030
:103B6000001FDFFDFC7F03F9FC0FC3F00FFE000018
:103B7000001FCFFDFC7F07F9FC1FC3F00FFF000003
:103B8000001FCFFDFC7F8FF9FE3FC3F01FFF000039
:103B9000001FCFF9FC3FFFF1FFFFC3F03FFF8000A4
:103BA000001FCFF9FC3FFFF0FFFFC7F03FBFC00091
:103BB000001FCFF9FC1FFFE0FFFFC7F07F3FC000F1
:103BC000001FC7F1FC0FFF807FFFC7F0FF1FE00061
:103BD000001FC7F1FC01FE001F9FC7F1FE1FF00090
:103BE00000000000000000000000000000000000D5
:103BF00000000000000000000000000000000000C5
:103C000000000000000000000000000000000000B4
:103C100000000000000000000000000000000000A4
:103C20000000000000000000000000000000000094
:103C30000000000000000000000000000000000084
:103C40000000000000000000000000000000000074
:103C50000000000000000000000000000000000064
:103C60000000000000000000000000000000000054
:103C7000000000FFF1F0000007E03FC07E00000000
:103C8000000000FFF9F000000FE03FF0FF800000AF
:103C9000000000FFF80000000FE07FF1FF8000004F
:103CA000000000F8F9F07F000FE003F1F7C000001A
:103CB000000000F8F9F0FFC00FE003F3E7C00000D8
:103CC000000000FFF1F1FFC003E007E3E7C00000E0
:103CD000000000FFE1F3F7C003E00FC3E7C00000FE
:103CE000000000FFF1F3E7C003E01F83E7C000001E
:103CF000000000F8F9F3E7C003E03F03E7C000006D
:103D0000000000F8F9F3EFC003E07E03EF8000004D
:103D1000000000FFF9F3FFC003E0FFF1FF800000A7
:103D2000000000FFF1F1FFC003E0FFF1FF00000021
:103D3000000000FFE1F0FFC003E0FFF07E000000A4
:103D400000000000000007C00000000000000000AC
:103D500000000000000007C000000000000000009C
:103D60000000000000000FC0000000000000000084
:103D7000000000000001FF800000000000000000C3
:103D8000000000000001FF00000000000000000033
:103D90000000000000000000000000000000000023
:103DA0000000000000000000000000000000000013
:103DB0000000000000000000000000000000000003
:103DC00000000000000000000000000000000000F3
:103DD00000000000000000000000000000000000E3
:103DE00000000000000000000000000000000000D3
:103DF00000000000000000000000000000000000C3
:103E000000000000000000000000000000000000B2
:103E100000000000000000000000000000000000A2
:103E20006D61726C696E66772E6F726700322E312B
:103E30002E31001FFFFFFFFFFFFF600000000001A9
:103E4000FF400000000000FF8000000000007F83B2
:103E5000CF00000C303F87FF80000C301F86798038
:103E6000000C000F8C30C7838C30E78C30CFC7CC70
:103E700031F38C30DCECEC33B98C30D86C6C33190A
:103E80008C30D06C0C33198C30D86C0C33198C30CE
:103E9000DC6C0E3B198C30CF7C079F198C30C77CB3
:103EA000038F1940000000000002600000000000C5
:103EB000061FFFFFFFFFFFF81000C90210012C01D1
:103EC0004001220170011801B0010E01F00104014E
:103ED0005002FA00B002F0003003E600D003DC002C
:103EE0009004D2007005C800A006BE000008B4000F
:103EF000B009AA00D00BA000600E960060118C00E3
:103F00000015820020197800C01D6E00A0226400F8
:103F1000B0275A00902C500000314600E0343C009D
:103F200010383200903A2800603C1E00A03D14007A
:103F3000803E0A00203F00002020506C616E6E65BC
:103F40007242756666657242797465733A20002024
:103F500046726565204D656D6F72793A2000204389
:103F60006F6D70696C65643A204A616E202035205F
:103F7000323032330A00204C617374205570646112
:103F80007465643A20323032322D30382D3036208C
:103F90007C20417574686F723A202857696C6C698F
:103FA00065290A004D61726C696E20322E312E3106
:103FB0000A0020536F6674776172652052657365DD
:103FC000740A00205761746368646F6720526573D8
:103FD00065740A002042726F776E206F75742052EC
:103FE000657365740A002045787465726E616C2093
:103FF00052657365740A00506F77657255700A00D8
:1040000073746172740A004732385859004D313068
:104010003031006F6B006572726F72207772697455
:10402000696E6720746F2066696C650A00446F6E64
:104030006520736176696E672066696C652E0A007B
:104040004D323900456E6473746F707300255320D0
:10405000256320256320256320256300205A3A002C
:1040600020593A0020583A00656E6473746F70737B
:10407000206869743A200000000A0B02090C0D0E3A
:104080000807030401000000000000000000000019
:104090000000000000000000000000000000000020
:1040A00000000012111000000000000000000000DD
:1040B0000000000000000000000000000024F404E4
:1040C000D9201BC40C5C0E9804C4095F02650771FB
:1040D00001F405F900FB04B30048048700C103693B
:1040E000005803550003034500BE023A0084023124
:1040F0000053022A002902250004022000E4011CCA
:1041000000C8011900AF01170098011400840113C1
:1041100000710110006101100051010E0043010DFA
:104120000036010B002B010B0020010B00150109CB
:10413000000C01090003010800FB000800F300085F
:1041400000EB000700E4000600DE000600D80006D1
:1041500000D2000600CC000500C7000500C2000523
:1041600000BD000400B9000400B5000400B1000463
:1041700000AD000400A9000400A5000300A2000394
:10418000009F0004009B00030098000300950002BC
:104190000093000300900003008D0002008B0003D9
:1041A00000880002008600020084000300810002F3
:1041B000007F0002007D0002007B00020079000207
:1041C0000077000100760002007400020072000116
:1041D00000710002006F0002006D0001006C00021F
:1041E000006A00010069000200670001006600012A
:1041F000006500010064000200620001006100012E
:1042000000600001005F0002005D0001005C000131
:10421000005B0001005A0001005900010058000134
:104220000057000100560001005500010054000134
:104230000053000000530001005200010051000132
:1042400000500001004F0001004E0000004E000130
:10425000004D0001004C0001004B0000004B00012C
:10426000004A000100490001004800000048000128
:104270000047000100460000004600010045000024
:10428000004500010044000100430000004300011C
:104290000042000000420001004100000041000116
:1042A00000400001003F0000003F0001003E000010
:1042B000003E0001003D0000003D0001003C000008
:1042C000003C0000003C0001003B0000003B0001FE
:1042D000003A0000003A00010039000000390001F6
:1042E00000380000003800000038000100370000EE
:1042F00000370001003600000036000000360001E3
:1043000000350000003500000035000100340000D9
:1043100000340000003400010033000000330000CE
:1043200000330001003200000032000000320001C2
:1043300000310000003100000031000100300000B9
:104340000030000000300001002F0000002F0000AE
:10435000002F0000002F0001002E0000002E0000A2
:10436000002E0001002D0000002D0000002D000097
:10437000002D0001002C0000002C0000002C00008B
:10438000002C0001002B0000002B0000002B00007F
:10439000002B0001002A0000002A0000002A000073
:1043A000002A000100290000002900000029000067
:1043B000002900000029000100280000002800005A
:1043C000002800000028000000280001002700004D
:1043D0000027000000270000002700000027000140
:1043E0000026000000260000002600000026000035
:1043F0000026000100250000002500000025000027
:104400000025000000250000002500010024000018
:10441000002400000024000000240000002400010B
:104420000023000000230000002300000023000000
:1044300000230000002300000023000100220000F0
:1044400000220000002200000022000000220000E4
:1044500000220001002100000021000000210000D6
:1044600000210000002100000021000000210001C7
:1044700000200000002000000020000000200000BC
:1044800000200000002000000020000000200001AB
:10449000001F0000001F0000001F0000001F0000A0
:1044A000001F0000001F0000001F0001001E000090
:1044B000001E0000001E0000001E00000024F4D4B6
:1044C0003050C38E20C2A24017828B7011127A9195
:1044D0000D816CD90AA861E108C75866076151438C
:1044E000061E4B5D05C145A7041A411104093D98FC
:1044F00003713931034036DB0265339102D4305405
:1045000002802E1D02632CEE01752AC501B028A081
:1045100001102781018F2564012B244B01E02234F7
:1045200001AC211F018D200D01801FFC00841EEDB8
:1045300000971DDF00B81CD200E61BC600201BBC84
:1045400000641AB200B219A8000A19A0006A1899EA
:1045500000D117910040178B00B516840031167EEC
:1045600000B31579003A157300C7146F0058146A28
:1045700000EE1366008813630025135E00C7125B0C
:10458000006C12570015125400C111510070114FE8
:104590000021114B00D61049008D104700461044F1
:1045A0000002104200C00F4000800F3E00420F3C4E
:1045B00000060F3B00CB0E3800930E37005C0E3523
:1045C00000270E3400F30D3200C10D3100900D3084
:1045D00000600D2E00320D2D00050D2C00D90C2B86
:1045E00000AE0C2900850C29005C0C2700350C2737
:1045F000000E0C2600E80B2400C40B2400A00B23A3
:10460000007D0B23005A0B2100390B2100180B20D1
:1046100000F80A1F00D90A1E00BB0A1E009D0A1DD1
:1046200000800A1D00630A1C00470A1B002C0A1B9D
:1046300000110A1A00F7091A00DD091900C4091946
:1046400000AB091900920917007B091800630917CC
:10465000004C09160036091600200916000A091533
:1046600000F5081500E0081400CC081400B8081480
:1046700000A4081400900813007D0812006B0813B2
:1046800000580812004608120034081100230811CF
:10469000001208110001081100F0071000E00710D7
:1046A00000D0071000C0071000B0070F00A10710CE
:1046B0000091070E0083070F0074070F0065070EB7
:1046C0000057070E0049070E003B070D002E070E8E
:1046D0000020070D0013070D0006070D00F9060C5A
:1046E00000ED060D00E0060C00D4060C00C8060C18
:1046F00000BC060C00B0060C00A4060B0099060CCA
:10470000008D060B0082060B0077060B006C060B73
:104710000061060A0057060B004C060A0042060A12
:104720000038060A002E060A0024060A001A060AA5
:10473000001006090007060A00FD050900F4050936
:1047400000EB050900E2050900D9050900D00509BB
:1047500000C7050900BE050900B5050800AD05083C
:1047600000A50509009C050800940508008C0508B3
:1047700000840508007C050800740508006C050726
:1047800000650508005D050700560508004E050791
:1047900000470507004005080038050700310507F8
:1047A000002A050700230507001C0506001605075B
:1047B000000F0507000805060002050700FB0406B8
:1047C00000F5040700EE040600E8040600E2040712
:1047D00000DB040600D5040600CF040600C9040669
:1047E00000C3040600BD040600B7040600B10405BA
:1047F00000AC040600A6040600A00405009B040605
:104800000095040500900406008A0405008504054F
:1048100000800406007A0405007504050070040594
:10482000006B04050066040500610405005C0405D6
:104830000057040500520405004D04050048040516
:1048400000430405003E0404003A04050035040555
:1048500000300404002C0405002704040023040590
:10486000001E0404001A04040016040500110404C8
:10487000000D0404000904050004040400000404FD
:1048800000FC030400F8030400F4030400F0030434
:1048900000EC030400E8030400E4030400E0030464
:1048A00000DC030400D8030400D4030400D0030494
:1048B00000CC030400C8030300C503030004370051
:1048C000001E290000511B000058100000100900B4
:1048D00000CC0400007802000041010000486F6D28
:1048E000696E67204661696C656400FF01FF436182
:1048F0006E6E6F74206F70656E207375626469727E
:104900002000220A00556E6B6E6F776E20636F6D0C
:104910006D616E643A202200204500205A00205923
:104920000020204D39322058005374657073207078
:10493000657220756E697400000022002500280051
:104940002B002E0031003400020100000501080197
:104950000B0100002100240027002A002D00300058
:10496000330001010000040107010A0105050505E6
:10497000070508080808020202020A0A08080404D7
:104980000404010101010101010103030303030305
:104990000303040707070C0C0C0C0C0C0C0C020294
:1049A000020206060606060606060B0B0B0B0B0B91
:1049B0000B0B01021020200808102040102040801E
:1049C00002010201080402010102040810204080D3
:1049D0008040201008040201800402018040201061
:1049E00008040201080402010102040810204080AA
:1049F0000102040810204080486F6D652025732552
:104A00007325732046697273740020453A00205A5A
:104A10003A0020593A00583A006F6B0A0052657309
:104A2000656E643A20007C3C3E5E2B3D3F2F5B5D13
:104A30003B2C2A225C006D01770111241FBECFEFB1
:104A4000D1E2DEBFCDBF00E00CBF84B78093731B03
:104A500014BE0FB6F894A895809160008861809389
:104A60006000109260000FBE17E0A0E0B2E0E2EA42
:104A7000FFEF02E00BBF02C007900D92A434B10714
:104A8000D9F72BE1A4E4B7E001C01D92A337B20728
:104A9000E1F715E2CCE1D5E200E006C0219701097B
:104AA000802FFE010F94427BCB31D10780E00807B5
:104AB000A9F70F941F670D94C07F0C9400002091FC
:104AC000AD07833021F425FD0CC024FD0CC030E07F
:104AD000A90102C0559547958A95E2F7CA018170F0
:104AE000089581E0089580E008958091810B84FD10
:104AF0000BC08091830B87FD07C09091840B93704E
:104B000081E019F480E0089581E0089581E29CE25B
:104B100008958FE491E5089550E0440F551F840FE8
:104B2000951F21E030E002C0220F331F6A95E2F7A3
:104B3000FC01808191812823392381E0232B09F412
:104B400080E00895FC0120812617170611F00CF073
:104B500060830895DB011196EC911197F0E0EE0F60
:104B6000FF1FE80FF91F2C9181E090E0AC0102C01B
:104B7000440F551F2A95E2F79A0180819181842B79
:104B8000932B918380830895DC01ED91FC91119723
:104B900012968C9180830895FC0171836083FB01E0
:104BA0002081FC012283FB01408308954F925F9294
:104BB0006F927F928F929F92AF92BF92CF92DF922D
:104BC000EF92FF920F931F93CF93DF93C82F062F7F
:104BD000542E622EE62EF12C3AE0732EC82ED12CE4
:104BE000F701789EE00DF11D1124EE0FFF1FEE0F6F
:104BF000FF1FEF50F84F60817181828193819B018B
:104C0000AC010F942F7F882309F47AC0C50D0C2EB8
:104C1000000CDD0B060D002E000C110B7C9EF0012C
:104C20007D9EF00D1124E00FF11FEE0FFF1FEE0F20
:104C3000FF1FEF50F84F80809180A280B380A501C4
:104C40009401C501B4010F942F7F811159C0C50D86
:104C5000D11D57FCDA957C9EF0017D9EF00D11244C
:104C6000060D111D67FC1A95E00FF11FEE0FFF1FD7
:104C7000EE0FFF1FEF50F84F40805180628073802D
:104C8000A3019201C301B2010F942F7F811138C09B
:104C9000A3019201C501B4010F947B7487FD0CC080
:104CA000A5019401C501B4010F944B7BA3019201AE
:104CB0000F944A7B4B015C018AE08C9DF0018D9D35
:104CC000F00D1124EE0DFF1DEE0FFF1FEE0FFF1F65
:104CD000EF50F84F80829182A282B38281E0DF910F
:104CE000CF911F910F91FF90EF90DF90CF90BF90E9
:104CF000AF909F908F907F906F905F904F900895AE
:104D000080E0EDCF8F929F92AF92BF92CF92DF92D1
:104D1000EF92FF920F931F93CF93DF9389ECE82ECE
:104D20008FE0F82E91EDC92E9FE0D92EF7018591E5
:104D30009491FC01A4903296B4903197C49132962C
:104D400004910496FC0184918823F1F088248A94CC
:104D5000AC1614F488248394002E000C110B0C2E36
:104D6000000CDD0BB016110669F19A2C9C161D067D
:104D700049F020E0482D6B2D892D18DF811102C0EC
:104D8000980CF4CFB394EECF88248A94B01614F420
:104D9000882483940C2E000CDD0B002E000C110BCC
:104DA000AC161D0679F09B2C9016110649F0282DA3
:104DB00040E0692D8A2DFADE811102C0980CF4CFF3
:104DC000A394EECFF2E0EF0EF11CCE14DF0409F055
:104DD000ADCFDF91CF911F910F91FF90EF90DF90BA
:104DE000CF90BF90AF909F908F9008954F925F9219
:104DF0006F927F928F929F92AF92BF92CF92DF92EB
:104E0000EF92FF920F931F93CF93DF93409065072C
:104E100050906607609067077090680701EF17E091
:104E2000CFE07801DAE0F70181909190A190B19004
:104E30007F01A5019401C501B4010F942F7F811159
:104E40000FC06701F4E0CF1AD108A5019401C30196
:104E5000B2010F944B7BF60160837183828393834D
:104E6000D15009F7C150085D1F4FC111DACFDF9152
:104E7000CF911F910F91FF90EF90DF90CF90BF9057
:104E8000AF909F908F907F906F905F904F9008951C
:104E90008F929F92AF92BF92CF92DF92EF92FF924A
:104EA0000F931F93CF93DF93EC017B018A0169017C
:104EB000FB012081318142815381688179818A811E
:104EC0009B810F944B7B688379838A839B83F80152
:104ED00020813181428153816C817D818E819F81CE
:104EE0000F944B7B6C837D838E839F83F60120819F
:104EF000318142815381688579858A859B850F94AC
:104F00004B7B688779878A879B87F70160817181EE
:104F1000828193819B01AC010F94E0749B01AC01F1
:104F20006C857D858E859F850F944B7B6C877D87F7
:104F30008E879F87F80160817181828193819B01B7
:104F4000AC010F94E0749B01AC01688979898A896E
:104F50009B890F944B7B688B798B8A8B9B8BF80199
:104F60002081318142815381F70160817181828189
:104F700093810F94E0749B01AC016C897D898E89CB
:104F80009F890F944B7B6C8B7D8B8E8B9F8BF60157
:104F90002081318142815381F70160817181828159
:104FA00093810F94E0749B01AC01688D798D8A8D9B
:104FB0009B8D0F944B7B688F798F8A8F9B8FF60127
:104FC0002081318142815381F80160817181828128
:104FD00093810F94E0749B01AC016C8D7D8D8E8D5F
:104FE0009F8D0F944B7B6C8F7D8F8E8F9F8F88A0B2
:104FF00099A0AAA0BBA0F701C080D180E280F38075
:1050000020E030E0A901C701B6010F94A37D87FF1E
:1050100004C0F7FAF094F7F8F094A7019601B401F0
:10502000C5010F947B7487FD02C064017501C8A29D
:10503000D9A2EAA2FBA28CA09DA0AEA0BFA0F801BD
:10504000C080D180E280F38020E030E0A901C70178
:10505000B6010F94A37D87FF04C0F7FAF094F7F828
:10506000F094A7019601B401C5010F947B7487FDEC
:1050700002C064017501CCA2DDA2EEA2FFA220E075
:1050800030E040E85FE36CA97DA98EA99FA90F9449
:105090004B7B6CAB7DAB8EAB9FABDF91CF911F9108
:1050A0000F91FF90EF90DF90CF90BF90AF909F90C7
:1050B0008F900895CF92DF92EF92FF926B017C0167
:1050C00020E030E0A9010F94A37D87FF04C0F7FA28
:1050D000F094F7F8F094C701B601FF90EF90DF90DD
:1050E000CF9008952FEB280F2A3108F047C0E22F08
:1050F000F0E08091810B9091820BA091830BB09195
:10510000840B04C0B695A795979587952A95D2F7F5
:1051100080FD02C081700895EE59F44FE081EE23C6
:1051200041F18091C20E9091C30EE80FF92FF11D4D
:10513000808190ED980F9A3030F08E3251F4818159
:1051400080538A3098F4F093A707E093A60781E094
:1051500008958D3211F08B3249F4818190ED980FD2
:105160009A3088F38E3211F48281EACFF0E0E0E0E9
:10517000EACF1092A7071092A607E9CF80E0089522
:10518000CF92DF92EF92FF92E0915317F091541774
:1051900020E030E848E154E464817581868197819C
:1051A0000F944B7B6B017C0120E030E848E154E434
:1051B0000F94A37D18163CF4C12C80E8D82E88E10A
:1051C000E82E84E4F82EC701B601FF90EF90DF903F
:1051D000CF900895CF92DF92EF92FF92E091531714
:1051E000F091541720E030E0A90164817581868137
:1051F00097810F944B7B6B017C0120E030E0A9018B
:105200000F947B7487FF03C0C12CD12C7601C7019A
:10521000B601FF90EF90DF90CF900895CF92DF928C
:10522000EF92FF92E0915317F091541720E030E095
:1052300046E954E460817181828193810F944B7BB4
:105240006B017C0120E030E046E954E40F94A37D3B
:10525000181634F4C12CD12C86E9E82E84E4F82EFB
:10526000C701B601FF90EF90DF90CF900895CF92E5
:10527000DF92EF92FF92E0915317F091541720E0E4
:1052800030E0A90160817181828193810F944B7B11
:105290006B017C0120E030E0A9010F947B7487FF53
:1052A00003C0C12CD12C7601C701B601FF90EF904D
:1052B000DF90CF900895109291160895FC012081FF
:1052C00027FD06C081818095881F8827881F089543
:1052D00080E008952FEFFC01208321830895E9EDFC
:1052E000F3E1808181830895FC01408351836283CF
:1052F00073830895CF92DF92EF92FF92DC0141EF2A
:1053000057E09FE030E020E0CD90DD90ED90FC9004
:105310001397F901EE0FFF1FEE0FFF1FE40FF51FAC
:10532000C082D182E282F3822F5F3F4F2A30310563
:1053300059F79150485D5F4F9111E4CFFF90EF9086
:10534000DF90CF9008959091590780935907892F46
:1053500008950F931F93CF938C0120E030E040E835
:105360005FE3FC0160817181828193810F944A7BAC
:1053700022E934E24BE252E40F944B7B2DE337E712
:105380004FE35CE30F94E0740F94C07CC62F6F3042
:1053900008F0CFEF20E030E040E85FE3F8016481FF
:1053A0007581868197810F944A7B22E73CE147E033
:1053B00052E40F944B7B2CEB36E842E75CE30F940E
:1053C000E0740F94C07C962F6A3008F09FEF8C2F0A
:1053D000CF911F910F9108958091B70D882321F0EF
:1053E0008091C00086FFFCCF0895EF92FF921F933B
:1053F000CF93DF9391EFE92E97E0F92E1FE0D0E0F5
:10540000C0E0FE01EE0FFF1FEE0FFF1FEE0DFF1DB0
:1054100060817181828193819B01AC010F942F7F08
:10542000811111C02196CA30D10559F7115088E277
:10543000E80EF11C1111E3CF81E0DF91CF911F91B4
:10544000FF90EF90089580E0F8CF10928C0B85E0EC
:10545000809358070895811104C085E99AE00D945E
:105460006C3181E791E2FBCFCF92DF92EF92FF9216
:105470000F931F93CF9390914B02913009F461C029
:10548000662351F0109278071092740710927507F6
:105490001092760710927707C82F0F94544AC09045
:1054A0007407D0907507E0907607F09077079B011E
:1054B000AC012C193D094E095F0969017A01F7FC1D
:1054C00040C020917807C7FD15C04C2F0C2E000C52
:1054D000550B4C5F5F4FE22F022E000CFF0B4E1757
:1054E0005F077CF144EFC42EDD24D394E12CF12C32
:1054F0002C1734F438EEC32E33E0D32EE12CF12CEC
:10550000C60ED71EE81EF91EC0927407D09275070A
:10551000E0927607F0927707022F017010E084E2A4
:10552000809FB001819F700D701B112460597C4FCA
:1055300082E390E00E9420E2809178078F5F809361
:105540007807CF911F910F91FF90EF90DF90CF9050
:1055500008952F923F924F925F926F927F928F9217
:105560009F92AF92BF92CF92DF92EF92FF921F93E2
:10557000CF93DF93CDB7DEB72C970FB6F894DEBF8D
:105580000FBECDBF7A011901DC012D913D914D91E6
:105590005C912D833E834F835887FB01408051806F
:1055A0006280738080908E0290908F02A090900213
:1055B000B0909102A50194016D817E818F819885C3
:1055C0000F947B7481110EC011E0A30192016091D0
:1055D00092027091930280919402909195020F949F
:1055E0007B74811110E0D1012D913D914D915C9121
:1055F00029873A874B875C87F701C080D180E2809A
:10560000F3802091020230910302409104025091F4
:105610000502C701B6010F947B74882309F44EC0BC
:10562000C0920202D0920302E0920402F0920502BC
:1056300080919A0290919B02A0919C02B0919D0250
:105640004091920250919302609194027091950260
:105650008092A00E9092A10EA092A20EB092A30EE4
:105660004093A40E5093A50E6093A60E7093A70EC0
:10567000C092A80ED092A90EE092AA0EF092AB0EA4
:105680008093AC0E9093AD0EA093AE0EB093AF0E80
:1056900020E030E040E05FE36091F00E7091F10EA9
:1056A0008091F20E9091F30E0F94E07469837A83E7
:1056B0008B839C83CE0101960E9420C62D813E8162
:1056C0004F8158852093A00E3093A10E4093A20ED7
:1056D0005093A30E4092A40E5092A50E6092A60E77
:1056E0007092A70ED1012D913D914D915C916091E9
:1056F000AC0E7091AD0E8091AE0E9091AF0E0F94E6
:105700004B7B6093AC0E7093AD0E8093AE0E909376
:10571000AF0E11112FC020E030E0A90169857A8514
:105720008B859C850F947B74811133C060E070E0A1
:1057300088EC92E469837A838B839C83CE01019603
:105740000E9420C62C960FB6F894DEBF0FBECDBFC8
:10575000DF91CF911F91FF90EF90DF90CF90BF909E
:10576000AF909F908F907F906F905F904F903F9001
:105770002F9008952AEF3EE74AE25FE36091F40E2E
:105780007091F50E8091F60E9091F70E0F94E074E3
:10579000D1CF60E070E080EA91E4CCCFCF93DF938B
:1057A00000D01F92CDB7DEB780E090E0A0E2B1E478
:1057B00089839A83AB83BC8361E0CE0101960E940A
:1057C000A5C70F900F900F900F90DF91CF91089584
:1057D0008091A6079091A707009731F04AE050E02A
:1057E00070E060E00D94607260E070E0CB010895BD
:1057F00060E00F94090481E00D946308CF93DF9378
:1058000000D000D0CDB7DEB79E838D830E9458FDB7
:1058100080E090E0A0E2B1E489839A83AB83BC830B
:1058200060E0CE0101960E94A5C781EF9DE0E0DF18
:1058300026960FB6F894DEBF0FBECDBFDF91CF9195
:10584000089590E080E0DACF4F925F926F927F925E
:105850008F929F92AF92BF92CF92DF92EF92FF9280
:105860001F93CF93DF9300D000D01F921F92CDB72C
:10587000DEB76C017B01442309F488C0FB01808002
:105880009180A280B380E0905317F0905417F701F5
:105890002481358146815781C501B4010F944A7B2B
:1058A0006D837E838F839887F6014080518062806C
:1058B0007380F7012081318142815381C301B2019C
:1058C0000F944A7B69837A838B839C83BE016B5FD1
:1058D0007F4FCE0101960E940CCA182F882309F42D
:1058E0003EC0C5DC27E137EB41ED58E30F944A7B1E
:1058F0009B01AC01C301B2010F94A37D87FD2EC0B3
:105900008DDC27E137EB41ED58E30F944B7B9B0196
:10591000AC01C301B2010F947B741816FCF05ADC81
:1059200027E137EB41ED58E30F944A7B9B01AC0133
:10593000C501B4010F94A37D87FD10C021DC27E1D0
:1059400037EB41ED58E30F944B7B9B01AC0111E029
:10595000C501B4010F947B7418160CF410E0812F6C
:1059600028960FB6F894DEBF0FBECDBFDF91CF9162
:105970001F91FF90EF90DF90CF90BF90AF909F90DE
:105980008F907F906F905F904F9008950E940CCA07
:10599000182F882321F3A0905317B0905417F501C6
:1059A0002081318142815381F60160817181828140
:1059B00093810F944B7B2B013C0159DC27E137EBA2
:1059C00041ED58E30F944A7B9B01AC01C301B20146
:1059D0000F94A37D87FDC2CF21DC27E137EB41ED9A
:1059E00058E30F944B7B9B01AC01C301B2010F94B0
:1059F0007B7418160CF4B2CFF501248135814681F1
:105A00005781F70160817181828193810F944B7B73
:105A10006B017C01DFDB27E137EB41ED58E30F94AD
:105A20004A7B9B01AC01C701B6010F94A37D87FDA2
:105A300095CFA6DB27E137EB41ED58E30F944B7B85
:105A40009B01AC0111E0C701B60184CF462FBC0118
:105A50006C5F7F4FF9CE8091A6079091A7070097C2
:105A600031F04AE050E070E060E00D94337160E0A6
:105A700070E0CB0108950D94155F42E00D94155F21
:105A8000AF92BF92CF92DF92EF92FF920F931F934C
:105A9000CF935C016B018A01845B984F7C01DC0130
:105AA000CC91C7FF3DC0FB0111821082CF5FD701AF
:105AB000CC93CC300CF053C08CE08A9DF0018B9DD0
:105AC000F00D1124CF018C0F911DC7FD9A952091E7
:105AD00043172817190609F00CF441C0F60120817C
